{
  "_format": "hh-sol-artifact-1",
  "contractName": "WavePortal",
  "sourceName": "contracts/Wave-Portal.sol",
  "abi": [
    {
      "inputs": [],
      "stateMutability": "payable",
      "type": "constructor"
    },
    {
      "anonymous": false,
      "inputs": [
        {
          "indexed": false,
          "internalType": "enum WavePortal.Reaction",
          "name": "reaction",
          "type": "uint8"
        },
        {
          "indexed": false,
          "internalType": "string",
          "name": "message",
          "type": "string"
        },
        {
          "indexed": true,
          "internalType": "address",
          "name": "from",
          "type": "address"
        },
        {
          "indexed": false,
          "internalType": "uint256",
          "name": "timestamp",
          "type": "uint256"
        }
      ],
      "name": "NewWave",
      "type": "event"
    },
    {
      "inputs": [],
      "name": "getAllWaves",
      "outputs": [
        {
          "components": [
            {
              "internalType": "enum WavePortal.Reaction",
              "name": "reaction",
              "type": "uint8"
            },
            {
              "internalType": "string",
              "name": "message",
              "type": "string"
            },
            {
              "internalType": "address",
              "name": "waver",
              "type": "address"
            },
            {
              "internalType": "uint256",
              "name": "timestamp",
              "type": "uint256"
            }
          ],
          "internalType": "struct WavePortal.Wave[]",
          "name": "",
          "type": "tuple[]"
        }
      ],
      "stateMutability": "view",
      "type": "function"
    },
    {
      "inputs": [],
      "name": "getTotalWaves",
      "outputs": [
        {
          "internalType": "uint256",
          "name": "",
          "type": "uint256"
        }
      ],
      "stateMutability": "view",
      "type": "function"
    },
    {
      "inputs": [
        {
          "internalType": "address",
          "name": "",
          "type": "address"
        }
      ],
      "name": "lastWavedAt",
      "outputs": [
        {
          "internalType": "uint256",
          "name": "",
          "type": "uint256"
        }
      ],
      "stateMutability": "view",
      "type": "function"
    },
    {
      "inputs": [
        {
          "internalType": "enum WavePortal.Reaction",
          "name": "_reaction",
          "type": "uint8"
        },
        {
          "internalType": "string",
          "name": "_message",
          "type": "string"
        }
      ],
      "name": "wave",
      "outputs": [],
      "stateMutability": "nonpayable",
      "type": "function"
    },
    {
      "inputs": [
        {
          "internalType": "uint256",
          "name": "",
          "type": "uint256"
        }
      ],
      "name": "waveList",
      "outputs": [
        {
          "internalType": "enum WavePortal.Reaction",
          "name": "reaction",
          "type": "uint8"
        },
        {
          "internalType": "string",
          "name": "message",
          "type": "string"
        },
        {
          "internalType": "address",
          "name": "waver",
          "type": "address"
        },
        {
          "internalType": "uint256",
          "name": "timestamp",
          "type": "uint256"
        }
      ],
      "stateMutability": "view",
      "type": "function"
    }
  ],
  "bytecode": "0x6080604052611143806100136000396000f3fe608060405234801561001057600080fd5b50600436106100575760003560e01c806348c29f141461005c5780638b9c3ecd146100785780639a2cdc08146100ab578063a42a4663146100c9578063bd43a908146100f9575b600080fd5b61007660048036038101906100719190610910565b610117565b005b610092600480360381019061008d9190610964565b6104ab565b6040516100a29493929190610be5565b60405180910390f35b6100b36105a0565b6040516100c09190610caf565b60405180910390f35b6100e360048036038101906100de91906108e7565b6105ad565b6040516100f09190610caf565b60405180910390f35b6101016105c5565b60405161010e9190610bc3565b60405180910390f35b60016000808282546101299190610d91565b9250508190555060026040518060800160405280846002811115610176577f4e487b7100000000000000000000000000000000000000000000000000000000600052602160045260246000fd5b81526020018381526020013373ffffffffffffffffffffffffffffffffffffffff16815260200142815250908060018154018082558091505060019003906000526020600020906004020160009091909190915060008201518160000160006101000a81548160ff0219169083600281111561021b577f4e487b7100000000000000000000000000000000000000000000000000000000600052602160045260246000fd5b0217905550602082015181600101908051906020019061023c92919061079d565b5060408201518160020160006101000a81548173ffffffffffffffffffffffffffffffffffffffff021916908373ffffffffffffffffffffffffffffffffffffffff1602179055506060820151816003015550503373ffffffffffffffffffffffffffffffffffffffff167f2d6873fdbcd96c625e1fafa3267b0aab6e37f9be7d7a32baf9f6875c5e2984448383426040516102da93929190610c31565b60405180910390a26000606460015442446102f59190610d91565b6102ff9190610d91565b6103099190610eed565b905080600181905550600080600281111561034d577f4e487b7100000000000000000000000000000000000000000000000000000000600052602160045260246000fd5b846002811115610386577f4e487b7100000000000000000000000000000000000000000000000000000000600052602160045260246000fd5b141580610394575060148351115b90508080156103a35750602882105b156104a5576000655af3107a40009050478111156103f6576040517f08c379a00000000000000000000000000000000000000000000000000000000081526004016103ed90610c6f565b60405180910390fd5b60003373ffffffffffffffffffffffffffffffffffffffff168260405161041c90610bae565b60006040518083038185875af1925050503d8060008114610459576040519150601f19603f3d011682016040523d82523d6000602084013e61045e565b606091505b50509050806104a2576040517f08c379a000000000000000000000000000000000000000000000000000000000815260040161049990610c8f565b60405180910390fd5b50505b50505050565b600281815481106104bb57600080fd5b90600052602060002090600402016000915090508060000160009054906101000a900460ff16908060010180546104f190610e8a565b80601f016020809104026020016040519081016040528092919081815260200182805461051d90610e8a565b801561056a5780601f1061053f5761010080835404028352916020019161056a565b820191906000526020600020905b81548152906001019060200180831161054d57829003601f168201915b5050505050908060020160009054906101000a900473ffffffffffffffffffffffffffffffffffffffff16908060030154905084565b6000600280549050905090565b60036020528060005260406000206000915090505481565b60606002805480602002602001604051908101604052809291908181526020016000905b8282101561079457838290600052602060002090600402016040518060800160405290816000820160009054906101000a900460ff166002811115610657577f4e487b7100000000000000000000000000000000000000000000000000000000600052602160045260246000fd5b600281111561068f577f4e487b7100000000000000000000000000000000000000000000000000000000600052602160045260246000fd5b81526020016001820180546106a390610e8a565b80601f01602080910402602001604051908101604052809291908181526020018280546106cf90610e8a565b801561071c5780601f106106f15761010080835404028352916020019161071c565b820191906000526020600020905b8154815290600101906020018083116106ff57829003601f168201915b505050505081526020016002820160009054906101000a900473ffffffffffffffffffffffffffffffffffffffff1673ffffffffffffffffffffffffffffffffffffffff1673ffffffffffffffffffffffffffffffffffffffff168152602001600382015481525050815260200190600101906105e9565b50505050905090565b8280546107a990610e8a565b90600052602060002090601f0160209004810192826107cb5760008555610812565b82601f106107e457805160ff1916838001178555610812565b82800160010185558215610812579182015b828111156108115782518255916020019190600101906107f6565b5b50905061081f9190610823565b5090565b5b8082111561083c576000816000905550600101610824565b5090565b600061085361084e84610cef565b610cca565b90508281526020810184848401111561086b57600080fd5b610876848285610e48565b509392505050565b60008135905061088d816110cf565b92915050565b6000813590506108a2816110e6565b92915050565b600082601f8301126108b957600080fd5b81356108c9848260208601610840565b91505092915050565b6000813590506108e1816110f6565b92915050565b6000602082840312156108f957600080fd5b60006109078482850161087e565b91505092915050565b6000806040838503121561092357600080fd5b600061093185828601610893565b925050602083013567ffffffffffffffff81111561094e57600080fd5b61095a858286016108a8565b9150509250929050565b60006020828403121561097657600080fd5b6000610984848285016108d2565b91505092915050565b60006109998383610b2d565b905092915050565b6109aa81610de7565b82525050565b6109b981610de7565b82525050565b60006109ca82610d30565b6109d48185610d53565b9350836020820285016109e685610d20565b8060005b85811015610a225784840389528151610a03858261098d565b9450610a0e83610d46565b925060208a019950506001810190506109ea565b50829750879550505050505092915050565b610a3d81610e36565b82525050565b610a4c81610e36565b82525050565b6000610a5d82610d3b565b610a678185610d6f565b9350610a77818560208601610e57565b610a8081611009565b840191505092915050565b6000610a9682610d3b565b610aa08185610d80565b9350610ab0818560208601610e57565b610ab981611009565b840191505092915050565b6000610ad1602f83610d80565b9150610adc8261101a565b604082019050919050565b6000610af4602783610d80565b9150610aff82611069565b604082019050919050565b6000610b17600083610d64565b9150610b22826110b8565b600082019050919050565b6000608083016000830151610b456000860182610a34565b5060208301518482036020860152610b5d8282610a52565b9150506040830151610b7260408601826109a1565b506060830151610b856060860182610b90565b508091505092915050565b610b9981610e2c565b82525050565b610ba881610e2c565b82525050565b6000610bb982610b0a565b9150819050919050565b60006020820190508181036000830152610bdd81846109bf565b905092915050565b6000608082019050610bfa6000830187610a43565b8181036020830152610c0c8186610a8b565b9050610c1b60408301856109b0565b610c286060830184610b9f565b95945050505050565b6000606082019050610c466000830186610a43565b8181036020830152610c588185610a8b565b9050610c676040830184610b9f565b949350505050565b60006020820190508181036000830152610c8881610ac4565b9050919050565b60006020820190508181036000830152610ca881610ae7565b9050919050565b6000602082019050610cc46000830184610b9f565b92915050565b6000610cd4610ce5565b9050610ce08282610ebc565b919050565b6000604051905090565b600067ffffffffffffffff821115610d0a57610d09610fda565b5b610d1382611009565b9050602081019050919050565b6000819050602082019050919050565b600081519050919050565b600081519050919050565b6000602082019050919050565b600082825260208201905092915050565b600081905092915050565b600082825260208201905092915050565b600082825260208201905092915050565b6000610d9c82610e2c565b9150610da783610e2c565b9250827fffffffffffffffffffffffffffffffffffffffffffffffffffffffffffffffff03821115610ddc57610ddb610f1e565b5b828201905092915050565b6000610df282610e0c565b9050919050565b6000819050610e07826110bb565b919050565b600073ffffffffffffffffffffffffffffffffffffffff82169050919050565b6000819050919050565b6000610e4182610df9565b9050919050565b82818337600083830152505050565b60005b83811015610e75578082015181840152602081019050610e5a565b83811115610e84576000848401525b50505050565b60006002820490506001821680610ea257607f821691505b60208210811415610eb657610eb5610fab565b5b50919050565b610ec582611009565b810181811067ffffffffffffffff82111715610ee457610ee3610fda565b5b80604052505050565b6000610ef882610e2c565b9150610f0383610e2c565b925082610f1357610f12610f4d565b5b828206905092915050565b7f4e487b7100000000000000000000000000000000000000000000000000000000600052601160045260246000fd5b7f4e487b7100000000000000000000000000000000000000000000000000000000600052601260045260246000fd5b7f4e487b7100000000000000000000000000000000000000000000000000000000600052602160045260246000fd5b7f4e487b7100000000000000000000000000000000000000000000000000000000600052602260045260246000fd5b7f4e487b7100000000000000000000000000000000000000000000000000000000600052604160045260246000fd5b6000601f19601f8301169050919050565b7f436f6e74726163742066756e64732061726520696e73756666696369656e742060008201527f746f206772616e74207072697a652e0000000000000000000000000000000000602082015250565b7f4661696c656420746f207769746864726177206d6f6e65792066726f6d20636f60008201527f6e74726163742e00000000000000000000000000000000000000000000000000602082015250565b50565b600381106110cc576110cb610f7c565b5b50565b6110d881610de7565b81146110e357600080fd5b50565b600381106110f357600080fd5b50565b6110ff81610e2c565b811461110a57600080fd5b5056fea26469706673582212200205ab699a74f84a2f503e962710dd552efe6067aa96302b73a2f0096b39ed5764736f6c63430008040033",
  "linkReferences": {},
  "deployedLinkReferences": {}
}