{"abi":[{"type":"constructor","inputs":[{"name":"name","type":"string","internalType":"string"},{"name":"symbol","type":"string","internalType":"string"},{"name":"lzEndpoint","type":"address","internalType":"address"},{"name":"delegate","type":"address","internalType":"address"},{"name":"originChainId","type":"uint32","internalType":"uint32"}],"stateMutability":"nonpayable"},{"type":"function","name":"ORIGIN_CHAIN_ID","inputs":[],"outputs":[{"name":"","type":"uint32","internalType":"uint32"}],"stateMutability":"view"},{"type":"function","name":"SEND","inputs":[],"outputs":[{"name":"","type":"uint16","internalType":"uint16"}],"stateMutability":"view"},{"type":"function","name":"SEND_AND_COMPOSE","inputs":[],"outputs":[{"name":"","type":"uint16","internalType":"uint16"}],"stateMutability":"view"},{"type":"function","name":"allowInitializePath","inputs":[{"name":"origin","type":"tuple","internalType":"struct Origin","components":[{"name":"srcEid","type":"uint32","internalType":"uint32"},{"name":"sender","type":"bytes32","internalType":"bytes32"},{"name":"nonce","type":"uint64","internalType":"uint64"}]}],"outputs":[{"name":"","type":"bool","internalType":"bool"}],"stateMutability":"view"},{"type":"function","name":"approvalRequired","inputs":[],"outputs":[{"name":"","type":"bool","internalType":"bool"}],"stateMutability":"pure"},{"type":"function","name":"approve","inputs":[{"name":"to","type":"address","internalType":"address"},{"name":"tokenId","type":"uint256","internalType":"uint256"}],"outputs":[],"stateMutability":"nonpayable"},{"type":"function","name":"balanceOf","inputs":[{"name":"owner","type":"address","internalType":"address"}],"outputs":[{"name":"","type":"uint256","internalType":"uint256"}],"stateMutability":"view"},{"type":"function","name":"bridgeInfo","inputs":[{"name":"","type":"uint256","internalType":"uint256"}],"outputs":[{"name":"originChainId","type":"uint32","internalType":"uint32"},{"name":"isBridged","type":"bool","internalType":"bool"},{"name":"bridgeCount","type":"uint256","internalType":"uint256"}],"stateMutability":"view"},{"type":"function","name":"combineOptions","inputs":[{"name":"_eid","type":"uint32","internalType":"uint32"},{"name":"_msgType","type":"uint16","internalType":"uint16"},{"name":"_extraOptions","type":"bytes","internalType":"bytes"}],"outputs":[{"name":"","type":"bytes","internalType":"bytes"}],"stateMutability":"view"},{"type":"function","name":"endpoint","inputs":[],"outputs":[{"name":"","type":"address","internalType":"contract ILayerZeroEndpointV2"}],"stateMutability":"view"},{"type":"function","name":"enforcedOptions","inputs":[{"name":"eid","type":"uint32","internalType":"uint32"},{"name":"msgType","type":"uint16","internalType":"uint16"}],"outputs":[{"name":"enforcedOption","type":"bytes","internalType":"bytes"}],"stateMutability":"view"},{"type":"function","name":"getApproved","inputs":[{"name":"tokenId","type":"uint256","internalType":"uint256"}],"outputs":[{"name":"","type":"address","internalType":"address"}],"stateMutability":"view"},{"type":"function","name":"getLocalTokenId","inputs":[{"name":"tokenId","type":"uint256","internalType":"uint256"}],"outputs":[{"name":"","type":"uint256","internalType":"uint256"}],"stateMutability":"pure"},{"type":"function","name":"getOriginChainEid","inputs":[{"name":"tokenId","type":"uint256","internalType":"uint256"}],"outputs":[{"name":"","type":"uint32","internalType":"uint32"}],"stateMutability":"pure"},{"type":"function","name":"isApprovedForAll","inputs":[{"name":"owner","type":"address","internalType":"address"},{"name":"operator","type":"address","internalType":"address"}],"outputs":[{"name":"","type":"bool","internalType":"bool"}],"stateMutability":"view"},{"type":"function","name":"isComposeMsgSender","inputs":[{"name":"","type":"tuple","internalType":"struct Origin","components":[{"name":"srcEid","type":"uint32","internalType":"uint32"},{"name":"sender","type":"bytes32","internalType":"bytes32"},{"name":"nonce","type":"uint64","internalType":"uint64"}]},{"name":"","type":"bytes","internalType":"bytes"},{"name":"_sender","type":"address","internalType":"address"}],"outputs":[{"name":"","type":"bool","internalType":"bool"}],"stateMutability":"view"},{"type":"function","name":"isNativeToken","inputs":[{"name":"tokenId","type":"uint256","internalType":"uint256"}],"outputs":[{"name":"","type":"bool","internalType":"bool"}],"stateMutability":"view"},{"type":"function","name":"isPeer","inputs":[{"name":"_eid","type":"uint32","internalType":"uint32"},{"name":"_peer","type":"bytes32","internalType":"bytes32"}],"outputs":[{"name":"","type":"bool","internalType":"bool"}],"stateMutability":"view"},{"type":"function","name":"lzReceive","inputs":[{"name":"_origin","type":"tuple","internalType":"struct Origin","components":[{"name":"srcEid","type":"uint32","internalType":"uint32"},{"name":"sender","type":"bytes32","internalType":"bytes32"},{"name":"nonce","type":"uint64","internalType":"uint64"}]},{"name":"_guid","type":"bytes32","internalType":"bytes32"},{"name":"_message","type":"bytes","internalType":"bytes"},{"name":"_executor","type":"address","internalType":"address"},{"name":"_extraData","type":"bytes","internalType":"bytes"}],"outputs":[],"stateMutability":"payable"},{"type":"function","name":"lzReceiveAndRevert","inputs":[{"name":"_packets","type":"tuple[]","internalType":"struct InboundPacket[]","components":[{"name":"origin","type":"tuple","internalType":"struct Origin","components":[{"name":"srcEid","type":"uint32","internalType":"uint32"},{"name":"sender","type":"bytes32","internalType":"bytes32"},{"name":"nonce","type":"uint64","internalType":"uint64"}]},{"name":"dstEid","type":"uint32","internalType":"uint32"},{"name":"receiver","type":"address","internalType":"address"},{"name":"guid","type":"bytes32","internalType":"bytes32"},{"name":"value","type":"uint256","internalType":"uint256"},{"name":"executor","type":"address","internalType":"address"},{"name":"message","type":"bytes","internalType":"bytes"},{"name":"extraData","type":"bytes","internalType":"bytes"}]}],"outputs":[],"stateMutability":"payable"},{"type":"function","name":"lzReceiveSimulate","inputs":[{"name":"_origin","type":"tuple","internalType":"struct Origin","components":[{"name":"srcEid","type":"uint32","internalType":"uint32"},{"name":"sender","type":"bytes32","internalType":"bytes32"},{"name":"nonce","type":"uint64","internalType":"uint64"}]},{"name":"_guid","type":"bytes32","internalType":"bytes32"},{"name":"_message","type":"bytes","internalType":"bytes"},{"name":"_executor","type":"address","internalType":"address"},{"name":"_extraData","type":"bytes","internalType":"bytes"}],"outputs":[],"stateMutability":"payable"},{"type":"function","name":"mint","inputs":[{"name":"to","type":"address","internalType":"address"},{"name":"uri","type":"string","internalType":"string"}],"outputs":[{"name":"","type":"uint256","internalType":"uint256"}],"stateMutability":"nonpayable"},{"type":"function","name":"msgInspector","inputs":[],"outputs":[{"name":"","type":"address","internalType":"address"}],"stateMutability":"view"},{"type":"function","name":"name","inputs":[],"outputs":[{"name":"","type":"string","internalType":"string"}],"stateMutability":"view"},{"type":"function","name":"nextLocalTokenId","inputs":[],"outputs":[{"name":"","type":"uint256","internalType":"uint256"}],"stateMutability":"view"},{"type":"function","name":"nextNonce","inputs":[{"name":"","type":"uint32","internalType":"uint32"},{"name":"","type":"bytes32","internalType":"bytes32"}],"outputs":[{"name":"nonce","type":"uint64","internalType":"uint64"}],"stateMutability":"view"},{"type":"function","name":"nextTokenId","inputs":[],"outputs":[{"name":"","type":"uint256","internalType":"uint256"}],"stateMutability":"view"},{"type":"function","name":"oApp","inputs":[],"outputs":[{"name":"","type":"address","internalType":"address"}],"stateMutability":"view"},{"type":"function","name":"oAppVersion","inputs":[],"outputs":[{"name":"senderVersion","type":"uint64","internalType":"uint64"},{"name":"receiverVersion","type":"uint64","internalType":"uint64"}],"stateMutability":"pure"},{"type":"function","name":"onftVersion","inputs":[],"outputs":[{"name":"interfaceId","type":"bytes4","internalType":"bytes4"},{"name":"version","type":"uint64","internalType":"uint64"}],"stateMutability":"pure"},{"type":"function","name":"owner","inputs":[],"outputs":[{"name":"","type":"address","internalType":"address"}],"stateMutability":"view"},{"type":"function","name":"ownerOf","inputs":[{"name":"tokenId","type":"uint256","internalType":"uint256"}],"outputs":[{"name":"","type":"address","internalType":"address"}],"stateMutability":"view"},{"type":"function","name":"pause","inputs":[],"outputs":[],"stateMutability":"nonpayable"},{"type":"function","name":"paused","inputs":[],"outputs":[{"name":"","type":"bool","internalType":"bool"}],"stateMutability":"view"},{"type":"function","name":"peers","inputs":[{"name":"eid","type":"uint32","internalType":"uint32"}],"outputs":[{"name":"peer","type":"bytes32","internalType":"bytes32"}],"stateMutability":"view"},{"type":"function","name":"preCrime","inputs":[],"outputs":[{"name":"","type":"address","internalType":"address"}],"stateMutability":"view"},{"type":"function","name":"quoteSend","inputs":[{"name":"_sendParam","type":"tuple","internalType":"struct SendParam","components":[{"name":"dstEid","type":"uint32","internalType":"uint32"},{"name":"to","type":"bytes32","internalType":"bytes32"},{"name":"tokenId","type":"uint256","internalType":"uint256"},{"name":"extraOptions","type":"bytes","internalType":"bytes"},{"name":"composeMsg","type":"bytes","internalType":"bytes"},{"name":"onftCmd","type":"bytes","internalType":"bytes"}]},{"name":"_payInLzToken","type":"bool","internalType":"bool"}],"outputs":[{"name":"msgFee","type":"tuple","internalType":"struct MessagingFee","components":[{"name":"nativeFee","type":"uint256","internalType":"uint256"},{"name":"lzTokenFee","type":"uint256","internalType":"uint256"}]}],"stateMutability":"view"},{"type":"function","name":"renounceOwnership","inputs":[],"outputs":[],"stateMutability":"nonpayable"},{"type":"function","name":"royaltyInfo","inputs":[{"name":"tokenId","type":"uint256","internalType":"uint256"},{"name":"salePrice","type":"uint256","internalType":"uint256"}],"outputs":[{"name":"receiver","type":"address","internalType":"address"},{"name":"amount","type":"uint256","internalType":"uint256"}],"stateMutability":"view"},{"type":"function","name":"safeTransferFrom","inputs":[{"name":"from","type":"address","internalType":"address"},{"name":"to","type":"address","internalType":"address"},{"name":"tokenId","type":"uint256","internalType":"uint256"}],"outputs":[],"stateMutability":"nonpayable"},{"type":"function","name":"safeTransferFrom","inputs":[{"name":"from","type":"address","internalType":"address"},{"name":"to","type":"address","internalType":"address"},{"name":"tokenId","type":"uint256","internalType":"uint256"},{"name":"data","type":"bytes","internalType":"bytes"}],"outputs":[],"stateMutability":"nonpayable"},{"type":"function","name":"send","inputs":[{"name":"_sendParam","type":"tuple","internalType":"struct SendParam","components":[{"name":"dstEid","type":"uint32","internalType":"uint32"},{"name":"to","type":"bytes32","internalType":"bytes32"},{"name":"tokenId","type":"uint256","internalType":"uint256"},{"name":"extraOptions","type":"bytes","internalType":"bytes"},{"name":"composeMsg","type":"bytes","internalType":"bytes"},{"name":"onftCmd","type":"bytes","internalType":"bytes"}]},{"name":"_fee","type":"tuple","internalType":"struct MessagingFee","components":[{"name":"nativeFee","type":"uint256","internalType":"uint256"},{"name":"lzTokenFee","type":"uint256","internalType":"uint256"}]},{"name":"_refundAddress","type":"address","internalType":"address"}],"outputs":[{"name":"msgReceipt","type":"tuple","internalType":"struct MessagingReceipt","components":[{"name":"guid","type":"bytes32","internalType":"bytes32"},{"name":"nonce","type":"uint64","internalType":"uint64"},{"name":"fee","type":"tuple","internalType":"struct MessagingFee","components":[{"name":"nativeFee","type":"uint256","internalType":"uint256"},{"name":"lzTokenFee","type":"uint256","internalType":"uint256"}]}]}],"stateMutability":"payable"},{"type":"function","name":"setApprovalForAll","inputs":[{"name":"operator","type":"address","internalType":"address"},{"name":"approved","type":"bool","internalType":"bool"}],"outputs":[],"stateMutability":"nonpayable"},{"type":"function","name":"setBaseURI","inputs":[{"name":"_baseTokenURI","type":"string","internalType":"string"}],"outputs":[],"stateMutability":"nonpayable"},{"type":"function","name":"setDefaultRoyalty","inputs":[{"name":"receiver","type":"address","internalType":"address"},{"name":"feeNumerator","type":"uint96","internalType":"uint96"}],"outputs":[],"stateMutability":"nonpayable"},{"type":"function","name":"setDelegate","inputs":[{"name":"_delegate","type":"address","internalType":"address"}],"outputs":[],"stateMutability":"nonpayable"},{"type":"function","name":"setEnforcedOptions","inputs":[{"name":"_enforcedOptions","type":"tuple[]","internalType":"struct EnforcedOptionParam[]","components":[{"name":"eid","type":"uint32","internalType":"uint32"},{"name":"msgType","type":"uint16","internalType":"uint16"},{"name":"options","type":"bytes","internalType":"bytes"}]}],"outputs":[],"stateMutability":"nonpayable"},{"type":"function","name":"setMsgInspector","inputs":[{"name":"_msgInspector","type":"address","internalType":"address"}],"outputs":[],"stateMutability":"nonpayable"},{"type":"function","name":"setPeer","inputs":[{"name":"_eid","type":"uint32","internalType":"uint32"},{"name":"_peer","type":"bytes32","internalType":"bytes32"}],"outputs":[],"stateMutability":"nonpayable"},{"type":"function","name":"setPreCrime","inputs":[{"name":"_preCrime","type":"address","internalType":"address"}],"outputs":[],"stateMutability":"nonpayable"},{"type":"function","name":"supportsInterface","inputs":[{"name":"interfaceId","type":"bytes4","internalType":"bytes4"}],"outputs":[{"name":"","type":"bool","internalType":"bool"}],"stateMutability":"view"},{"type":"function","name":"symbol","inputs":[],"outputs":[{"name":"","type":"string","internalType":"string"}],"stateMutability":"view"},{"type":"function","name":"token","inputs":[],"outputs":[{"name":"","type":"address","internalType":"address"}],"stateMutability":"view"},{"type":"function","name":"tokenURI","inputs":[{"name":"tokenId","type":"uint256","internalType":"uint256"}],"outputs":[{"name":"","type":"string","internalType":"string"}],"stateMutability":"view"},{"type":"function","name":"transferFrom","inputs":[{"name":"from","type":"address","internalType":"address"},{"name":"to","type":"address","internalType":"address"},{"name":"tokenId","type":"uint256","internalType":"uint256"}],"outputs":[],"stateMutability":"nonpayable"},{"type":"function","name":"transferOwnership","inputs":[{"name":"newOwner","type":"address","internalType":"address"}],"outputs":[],"stateMutability":"nonpayable"},{"type":"function","name":"unpause","inputs":[],"outputs":[],"stateMutability":"nonpayable"},{"type":"event","name":"Approval","inputs":[{"name":"owner","type":"address","indexed":true,"internalType":"address"},{"name":"approved","type":"address","indexed":true,"internalType":"address"},{"name":"tokenId","type":"uint256","indexed":true,"internalType":"uint256"}],"anonymous":false},{"type":"event","name":"ApprovalForAll","inputs":[{"name":"owner","type":"address","indexed":true,"internalType":"address"},{"name":"operator","type":"address","indexed":true,"internalType":"address"},{"name":"approved","type":"bool","indexed":false,"internalType":"bool"}],"anonymous":false},{"type":"event","name":"BaseURISet","inputs":[{"name":"baseURI","type":"string","indexed":false,"internalType":"string"}],"anonymous":false},{"type":"event","name":"EnforcedOptionSet","inputs":[{"name":"_enforcedOptions","type":"tuple[]","indexed":false,"internalType":"struct EnforcedOptionParam[]","components":[{"name":"eid","type":"uint32","internalType":"uint32"},{"name":"msgType","type":"uint16","internalType":"uint16"},{"name":"options","type":"bytes","internalType":"bytes"}]}],"anonymous":false},{"type":"event","name":"Minted","inputs":[{"name":"to","type":"address","indexed":true,"internalType":"address"},{"name":"tokenId","type":"uint256","indexed":true,"internalType":"uint256"},{"name":"uri","type":"string","indexed":false,"internalType":"string"}],"anonymous":false},{"type":"event","name":"MsgInspectorSet","inputs":[{"name":"inspector","type":"address","indexed":false,"internalType":"address"}],"anonymous":false},{"type":"event","name":"ONFTReceived","inputs":[{"name":"guid","type":"bytes32","indexed":true,"internalType":"bytes32"},{"name":"srcEid","type":"uint32","indexed":false,"internalType":"uint32"},{"name":"toAddress","type":"address","indexed":true,"internalType":"address"},{"name":"tokenId","type":"uint256","indexed":false,"internalType":"uint256"}],"anonymous":false},{"type":"event","name":"ONFTSent","inputs":[{"name":"guid","type":"bytes32","indexed":true,"internalType":"bytes32"},{"name":"dstEid","type":"uint32","indexed":false,"internalType":"uint32"},{"name":"fromAddress","type":"address","indexed":true,"internalType":"address"},{"name":"tokenId","type":"uint256","indexed":false,"internalType":"uint256"}],"anonymous":false},{"type":"event","name":"OwnershipTransferred","inputs":[{"name":"previousOwner","type":"address","indexed":true,"internalType":"address"},{"name":"newOwner","type":"address","indexed":true,"internalType":"address"}],"anonymous":false},{"type":"event","name":"Paused","inputs":[{"name":"account","type":"address","indexed":false,"internalType":"address"}],"anonymous":false},{"type":"event","name":"PeerSet","inputs":[{"name":"eid","type":"uint32","indexed":false,"internalType":"uint32"},{"name":"peer","type":"bytes32","indexed":false,"internalType":"bytes32"}],"anonymous":false},{"type":"event","name":"PreCrimeSet","inputs":[{"name":"preCrimeAddress","type":"address","indexed":false,"internalType":"address"}],"anonymous":false},{"type":"event","name":"Transfer","inputs":[{"name":"from","type":"address","indexed":true,"internalType":"address"},{"name":"to","type":"address","indexed":true,"internalType":"address"},{"name":"tokenId","type":"uint256","indexed":true,"internalType":"uint256"}],"anonymous":false},{"type":"event","name":"Unpaused","inputs":[{"name":"account","type":"address","indexed":false,"internalType":"address"}],"anonymous":false},{"type":"error","name":"ERC2981InvalidDefaultRoyalty","inputs":[{"name":"numerator","type":"uint256","internalType":"uint256"},{"name":"denominator","type":"uint256","internalType":"uint256"}]},{"type":"error","name":"ERC2981InvalidDefaultRoyaltyReceiver","inputs":[{"name":"receiver","type":"address","internalType":"address"}]},{"type":"error","name":"ERC2981InvalidTokenRoyalty","inputs":[{"name":"tokenId","type":"uint256","internalType":"uint256"},{"name":"numerator","type":"uint256","internalType":"uint256"},{"name":"denominator","type":"uint256","internalType":"uint256"}]},{"type":"error","name":"ERC2981InvalidTokenRoyaltyReceiver","inputs":[{"name":"tokenId","type":"uint256","internalType":"uint256"},{"name":"receiver","type":"address","internalType":"address"}]},{"type":"error","name":"ERC721IncorrectOwner","inputs":[{"name":"sender","type":"address","internalType":"address"},{"name":"tokenId","type":"uint256","internalType":"uint256"},{"name":"owner","type":"address","internalType":"address"}]},{"type":"error","name":"ERC721InsufficientApproval","inputs":[{"name":"operator","type":"address","internalType":"address"},{"name":"tokenId","type":"uint256","internalType":"uint256"}]},{"type":"error","name":"ERC721InvalidApprover","inputs":[{"name":"approver","type":"address","internalType":"address"}]},{"type":"error","name":"ERC721InvalidOperator","inputs":[{"name":"operator","type":"address","internalType":"address"}]},{"type":"error","name":"ERC721InvalidOwner","inputs":[{"name":"owner","type":"address","internalType":"address"}]},{"type":"error","name":"ERC721InvalidReceiver","inputs":[{"name":"receiver","type":"address","internalType":"address"}]},{"type":"error","name":"ERC721InvalidSender","inputs":[{"name":"sender","type":"address","internalType":"address"}]},{"type":"error","name":"ERC721NonexistentToken","inputs":[{"name":"tokenId","type":"uint256","internalType":"uint256"}]},{"type":"error","name":"EnforcedPause","inputs":[]},{"type":"error","name":"ExpectedPause","inputs":[]},{"type":"error","name":"InvalidAddress","inputs":[]},{"type":"error","name":"InvalidDelegate","inputs":[]},{"type":"error","name":"InvalidEndpointCall","inputs":[]},{"type":"error","name":"InvalidOptions","inputs":[{"name":"options","type":"bytes","internalType":"bytes"}]},{"type":"error","name":"InvalidReceiver","inputs":[]},{"type":"error","name":"LzTokenUnavailable","inputs":[]},{"type":"error","name":"NoPeer","inputs":[{"name":"eid","type":"uint32","internalType":"uint32"}]},{"type":"error","name":"NotEnoughNative","inputs":[{"name":"msgValue","type":"uint256","internalType":"uint256"}]},{"type":"error","name":"OnlyEndpoint","inputs":[{"name":"addr","type":"address","internalType":"address"}]},{"type":"error","name":"OnlyNFTOwner","inputs":[{"name":"caller","type":"address","internalType":"address"},{"name":"owner","type":"address","internalType":"address"}]},{"type":"error","name":"OnlyPeer","inputs":[{"name":"eid","type":"uint32","internalType":"uint32"},{"name":"sender","type":"bytes32","internalType":"bytes32"}]},{"type":"error","name":"OnlySelf","inputs":[]},{"type":"error","name":"OwnableInvalidOwner","inputs":[{"name":"owner","type":"address","internalType":"address"}]},{"type":"error","name":"OwnableUnauthorizedAccount","inputs":[{"name":"account","type":"address","internalType":"address"}]},{"type":"error","name":"SafeERC20FailedOperation","inputs":[{"name":"token","type":"address","internalType":"address"}]},{"type":"error","name":"SimulationResult","inputs":[{"name":"result","type":"bytes","internalType":"bytes"}]},{"type":"error","name":"Unauthorized","inputs":[]}],"bytecode":{"object":"0x60c060405234801562000010575f80fd5b50604051620041cf380380620041cf833981016040819052620000339162000278565b848484848383838381818181806001600160a01b0381166200006e57604051631e4fbdf760e01b81525f600482015260240160405180910390fd5b62000079816200014c565b506001600160a01b038083166080528116620000a857604051632d618d8160e21b815260040160405180910390fd5b60805160405163ca5eb5e160e01b81526001600160a01b0383811660048301529091169063ca5eb5e1906024015f604051808303815f87803b158015620000ed575f80fd5b505af115801562000100573d5f803e3d5ffd5b5050505050505050505081600590816200011b9190620003a9565b5060066200012a8282620003a9565b50505063ffffffff90941660a05250506001600f555062000475945050505050565b5f80546001600160a01b038381166001600160a01b0319831681178455604051919092169283917f8be0079c531659141344cd1fd0a4f28419497f9722a3daafe3b4186f6b6457e09190a35050565b634e487b7160e01b5f52604160045260245ffd5b5f82601f830112620001bf575f80fd5b81516001600160401b0380821115620001dc57620001dc6200019b565b604051601f8301601f19908116603f011681019082821181831017156200020757620002076200019b565b816040528381526020925086602085880101111562000224575f80fd5b5f91505b8382101562000247578582018301518183018401529082019062000228565b5f602085830101528094505050505092915050565b80516001600160a01b038116811462000273575f80fd5b919050565b5f805f805f60a086880312156200028d575f80fd5b85516001600160401b0380821115620002a4575f80fd5b620002b289838a01620001af565b96506020880151915080821115620002c8575f80fd5b50620002d788828901620001af565b945050620002e8604087016200025c565b9250620002f8606087016200025c565b9150608086015163ffffffff8116811462000311575f80fd5b809150509295509295909350565b600181811c908216806200033457607f821691505b6020821081036200035357634e487b7160e01b5f52602260045260245ffd5b50919050565b601f821115620003a457805f5260205f20601f840160051c81016020851015620003805750805b601f840160051c820191505b81811015620003a1575f81556001016200038c565b50505b505050565b81516001600160401b03811115620003c557620003c56200019b565b620003dd81620003d684546200031f565b8462000359565b602080601f83116001811462000413575f8415620003fb5750858301515b5f19600386901b1c1916600185901b1785556200046d565b5f85815260208120601f198616915b82811015620004435788860151825594840194600190910190840162000422565b50858210156200046157878501515f19600388901b60f8161c191681555b505060018460011b0185555b505050505050565b60805160a051613ceb620004e45f395f818161047b01528181610fa8015281816110b9015281816116c101528181611726015261252b01525f81816106b101528181610be0015281816115e101528181611d6d015281816122880152818161265201526127090152613ceb5ff3fe608060405260043610610366575f3560e01c806370a08231116101c8578063b98bd070116100fd578063d045a0dc1161009d578063e985e9c51161006d578063e985e9c514610a7b578063f2fde38b14610a9a578063fc0c546a14610604578063ff7bd03d14610ab9575f80fd5b8063d045a0dc146109c2578063d0def521146109d5578063d4243885146109f4578063d7bc335414610a13575f80fd5b8063bd815db0116100d8578063bd815db014610945578063c6414e7b14610958578063c87b56dd14610984578063ca5eb5e1146109a3575f80fd5b8063b98bd070146108dc578063bb0b6a53146108fb578063bc70b35414610926575f80fd5b806395d89b4111610168578063a72f5dd811610143578063a72f5dd814610863578063b21a33e41461088a578063b731ea0a1461089e578063b88d4fde146108bd575f80fd5b806395d89b411461081e5780639f68b96414610832578063a22cb46514610844575f80fd5b80637d25a05e116101a35780637d25a05e1461079657806382413eac146107cf5780638456cb59146107ee5780638da5cb5b14610802575f80fd5b806370a082311461074f578063715018a61461076e57806375794a3c14610782575f80fd5b80633400288b1161029e5780635a0dfe4d1161023e5780636352211e116102195780636352211e146106d35780636a864b0c146106f25780636f29b0de146107115780636fc1b31e14610730575f80fd5b80635a0dfe4d146106545780635c975abb146106895780635e280f11146106a0575f80fd5b8063460c256111610279578063460c2561146105e657806352ae2879146106045780635535d4611461061657806355f804b314610635575f80fd5b80633400288b146105945780633f4ba83a146105b357806342842e0e146105c7575f80fd5b8063111ecdad116103095780631f5e1334116102e45780631f5e1334146104f057806321eb730b1461051757806323b872dd146105375780632a55205a14610556575f80fd5b8063111ecdad1461049d57806313137d65146104bc57806317442b70146104cf575f80fd5b806306fdde031161034457806306fdde03146103f3578063081812fc14610414578063095ea7b31461044b5780630dd85b001461046a575f80fd5b806301ffc9a71461036a57806302aa0a051461039e57806304634d8d146103d2575b5f80fd5b348015610375575f80fd5b50610389610384366004612c04565b610ad8565b60405190151581526020015b60405180910390f35b3480156103a9575f80fd5b506103bd6103b8366004612c1f565b610af7565b60405163ffffffff9091168152602001610395565b3480156103dd575f80fd5b506103f16103ec366004612c4a565b610b06565b005b3480156103fe575f80fd5b50610407610b1c565b6040516103959190612cd9565b34801561041f575f80fd5b5061043361042e366004612c1f565b610bac565b6040516001600160a01b039091168152602001610395565b348015610456575f80fd5b506103f1610465366004612ceb565b610bd3565b348015610475575f80fd5b506103bd7f000000000000000000000000000000000000000000000000000000000000000081565b3480156104a8575f80fd5b50600454610433906001600160a01b031681565b6103f16104ca366004612d68565b610bde565b3480156104da575f80fd5b5060408051600181526002602082015201610395565b3480156104fb575f80fd5b50610504600181565b60405161ffff9091168152602001610395565b61052a610525366004612e10565b610c9e565b6040516103959190612e78565b348015610542575f80fd5b506103f1610551366004612eb9565b610d56565b348015610561575f80fd5b50610575610570366004612ef7565b610ddf565b604080516001600160a01b039093168352602083019190915201610395565b34801561059f575f80fd5b506103f16105ae366004612f2f565b610e64565b3480156105be575f80fd5b506103f1610e76565b3480156105d2575f80fd5b506103f16105e1366004612eb9565b610e88565b3480156105f1575f80fd5b50600f545b604051908152602001610395565b34801561060f575f80fd5b5030610433565b348015610621575f80fd5b50610407610630366004612f5a565b610ea7565b348015610640575f80fd5b506103f161064f366004612f8b565b610f49565b34801561065f575f80fd5b5061038961066e366004612f2f565b63ffffffff919091165f908152600160205260409020541490565b348015610694575f80fd5b50600e5460ff16610389565b3480156106ab575f80fd5b506104337f000000000000000000000000000000000000000000000000000000000000000081565b3480156106de575f80fd5b506104336106ed366004612c1f565b610f9b565b3480156106fd575f80fd5b5061038961070c366004612c1f565b610fa5565b34801561071c575f80fd5b506105f661072b366004612c1f565b610fe3565b34801561073b575f80fd5b506103f161074a366004612fc9565b610ff2565b34801561075a575f80fd5b506105f6610769366004612fc9565b61104f565b348015610779575f80fd5b506103f1611094565b34801561078d575f80fd5b506105f66110a5565b3480156107a1575f80fd5b506107b76107b0366004612f2f565b5f92915050565b6040516001600160401b039091168152602001610395565b3480156107da575f80fd5b506103896107e9366004612fe4565b6110ed565b3480156107f9575f80fd5b506103f1611102565b34801561080d575f80fd5b505f546001600160a01b0316610433565b348015610829575f80fd5b50610407611112565b34801561083d575f80fd5b505f610389565b34801561084f575f80fd5b506103f161085e366004613053565b611121565b34801561086e575f80fd5b50604080516311f0c6d360e11b81526001602082015201610395565b348015610895575f80fd5b50610504600281565b3480156108a9575f80fd5b50600254610433906001600160a01b031681565b3480156108c8575f80fd5b506103f16108d736600461318c565b61112c565b3480156108e7575f80fd5b506103f16108f6366004613233565b611144565b348015610906575f80fd5b506105f6610915366004613265565b60016020525f908152604090205481565b348015610931575f80fd5b5061040761094036600461327e565b61115e565b6103f1610953366004613233565b6112ff565b348015610963575f80fd5b506109776109723660046132da565b61147f565b604051610395919061331d565b34801561098f575f80fd5b5061040761099e366004612c1f565b6114c3565b3480156109ae575f80fd5b506103f16109bd366004612fc9565b6115ba565b6103f16109d0366004612d68565b61163b565b3480156109e0575f80fd5b506105f66109ef366004613334565b61166a565b3480156109ff575f80fd5b506103f1610a0e366004612fc9565b6117dc565b348015610a1e575f80fd5b50610a59610a2d366004612c1f565b60106020525f90815260409020805460019091015463ffffffff821691640100000000900460ff169083565b6040805163ffffffff9094168452911515602084015290820152606001610395565b348015610a86575f80fd5b50610389610a95366004613384565b611832565b348015610aa5575f80fd5b506103f1610ab4366004612fc9565b61185f565b348015610ac4575f80fd5b50610389610ad33660046133b0565b61189c565b5f610ae2826118d0565b80610af15750610af18261191f565b92915050565b5f610af1633b9aca00836133f2565b610b0e611943565b610b18828261196f565b5050565b606060058054610b2b90613405565b80601f0160208091040260200160405190810160405280929190818152602001828054610b5790613405565b8015610ba25780601f10610b7957610100808354040283529160200191610ba2565b820191905f5260205f20905b815481529060010190602001808311610b8557829003601f168201915b5050505050905090565b5f610bb682611a11565b505f828152600960205260409020546001600160a01b0316610af1565b610b18828233611a49565b7f00000000000000000000000000000000000000000000000000000000000000006001600160a01b03163314610c2e576040516391ac5e4f60e01b81523360048201526024015b60405180910390fd5b60208701803590610c4890610c43908a613265565b611a56565b14610c8657610c5a6020880188613265565b60405163309afaf360e21b815263ffffffff909116600482015260208801356024820152604401610c25565b610c9587878787878787611a91565b50505050505050565b610ca6612bac565b610cc1336040860135610cbc6020880188613265565b611b43565b5f80610ccc86611bc1565b9092509050610cf8610ce16020880188613265565b8383610cf2368a90038a018a613437565b88611d3c565b805190935033907f986156872b2ee0022b9585231dbbfde457f87f8a16b6c45e1a81c54c4ad8351f610d2d60208a018a613265565b6040805163ffffffff9092168252808b013560208301520160405180910390a350509392505050565b6001600160a01b038216610d7f57604051633250574960e11b81525f6004820152602401610c25565b5f610d8b838333611e42565b9050836001600160a01b0316816001600160a01b031614610dd9576040516364283d7b60e01b81526001600160a01b0380861660048301526024820184905282166044820152606401610c25565b50505050565b5f828152600d6020526040812080548291906001600160a01b03811690600160a01b90046001600160601b031681610e32575050600c546001600160a01b03811690600160a01b90046001600160601b03165b5f612710610e496001600160601b03841689613467565b610e5391906133f2565b9295509193505050505b9250929050565b610e6c611943565b610b188282611e56565b610e7e611943565b610e86611ea3565b565b610ea283838360405180602001604052805f81525061112c565b505050565b600360209081525f928352604080842090915290825290208054610eca90613405565b80601f0160208091040260200160405190810160405280929190818152602001828054610ef690613405565b8015610f415780601f10610f1857610100808354040283529160200191610f41565b820191905f5260205f20905b815481529060010190602001808311610f2457829003601f168201915b505050505081565b610f51611943565b600b610f5e8284836134c2565b507ff9c7803e94e0d3c02900d8a90893a6d5e90dd04d32a4cfe825520f82bf9f32f6600b604051610f8f919061357b565b60405180910390a15050565b5f610af182611a11565b5f7f000000000000000000000000000000000000000000000000000000000000000063ffffffff16610fd683610af7565b63ffffffff161492915050565b5f610af1633b9aca0083613605565b610ffa611943565b600480546001600160a01b0319166001600160a01b0383169081179091556040519081527ff0be4f1e87349231d80c36b33f9e8639658eeaf474014dee15a3e6a4d4414197906020015b60405180910390a150565b5f6001600160a01b038216611079576040516322718ad960e21b81525f6004820152602401610c25565b506001600160a01b03165f9081526008602052604090205490565b61109c611943565b610e865f611ef5565b600f545f906110de633b9aca0063ffffffff7f000000000000000000000000000000000000000000000000000000000000000016613467565b6110e89190613618565b905090565b6001600160a01b03811630145b949350505050565b61110a611943565b610e86611f44565b606060068054610b2b90613405565b610b18338383611f81565b611137848484610d56565b610dd9338585858561201f565b61114c611943565b610b18611159828461362b565b612146565b63ffffffff84165f90815260036020908152604080832061ffff8716845290915281208054606092919061119190613405565b80601f01602080910402602001604051908101604052809291908181526020018280546111bd90613405565b80156112085780601f106111df57610100808354040283529160200191611208565b820191905f5260205f20905b8154815290600101906020018083116111eb57829003601f168201915b5050505050905080515f036112565783838080601f0160208091040260200160405190810160405280939291908181526020018383808284375f920191909152509294506110fa9350505050565b5f8390036112655790506110fa565b600283106112e2576112ab84848080601f0160208091040260200160405190810160405280939291908181526020018383808284375f9201919091525061224792505050565b806112b984600281886136f8565b6040516020016112cb9392919061371f565b6040516020818303038152906040529150506110fa565b8383604051639a6d49cd60e01b8152600401610c2592919061376d565b5f5b81811015611402573683838381811061131c5761131c613780565b905060200281019061132e9190613794565b90506113606113406020830183613265565b602083013563ffffffff919091165f908152600160205260409020541490565b61136a57506113fa565b3063d045a0dc60c08301358360a08101356113896101008301836137b3565b61139a610100890160e08a01612fc9565b6113a86101208a018a6137b3565b6040518963ffffffff1660e01b81526004016113ca9796959493929190613809565b5f604051808303818588803b1580156113e1575f80fd5b505af11580156113f3573d5f803e3d5ffd5b5050505050505b600101611301565b50336001600160a01b0316638e9e70996040518163ffffffff1660e01b81526004015f60405180830381865afa15801561143e573d5f803e3d5ffd5b505050506040513d5f823e601f3d908101601f19168201604052611465919081019061388e565b604051638351eea760e01b8152600401610c259190612cd9565b604080518082019091525f80825260208201525f8061149d85611bc1565b90925090506114ba6114b26020870187613265565b838387612273565b95945050505050565b60606114ce82611a11565b505f82815260116020526040812080546114e790613405565b80601f016020809104026020016040519081016040528092919081815260200182805461151390613405565b801561155e5780601f106115355761010080835404028352916020019161155e565b820191905f5260205f20905b81548152906001019060200180831161154157829003601f168201915b505050505090505f61156e612348565b905080515f0361157f575092915050565b8151156115b15780826040516020016115999291906138f6565b60405160208183030381529060405292505050919050565b6110fa84612357565b6115c2611943565b60405163ca5eb5e160e01b81526001600160a01b0382811660048301527f0000000000000000000000000000000000000000000000000000000000000000169063ca5eb5e1906024015f604051808303815f87803b158015611622575f80fd5b505af1158015611634573d5f803e3d5ffd5b5050505050565b33301461165b5760405163029a949d60e31b815260040160405180910390fd5b610c9587878787878787610c86565b5f6116736123bc565b6001600160a01b03841661169a5760405163e6c4247b60e01b815260040160405180910390fd5b600f80545f91826116aa83613924565b9091555090505f816116e6633b9aca0063ffffffff7f000000000000000000000000000000000000000000000000000000000000000016613467565b6116f09190613618565b90506116fc86826123e0565b5f8181526011602052604090206117148587836134c2565b506040805160608101825263ffffffff7f0000000000000000000000000000000000000000000000000000000000000000811682525f602080840182815284860183815287845260109092529185902093518454925115156401000000000264ffffffffff1990931693169290921717825551600191909101555181906001600160a01b038816907fe7cd4ce7f2a465edc730269a1305e8a48bad821e8fb7e152ec413829c01a53c4906117cb908990899061376d565b60405180910390a395945050505050565b6117e4611943565b600280546001600160a01b0319166001600160a01b0383169081179091556040519081527fd48d879cef83a1c0bdda516f27b13ddb1b3f8bbac1c9e1511bb2a659c242776090602001611044565b6001600160a01b039182165f908152600a6020908152604080832093909416825291909152205460ff1690565b611867611943565b6001600160a01b03811661189057604051631e4fbdf760e01b81525f6004820152602401610c25565b61189981611ef5565b50565b5f6020820180359060019083906118b39086613265565b63ffffffff16815260208101919091526040015f20541492915050565b5f6001600160e01b031982166380ac58cd60e01b148061190057506001600160e01b03198216635b5e139f60e01b145b80610af157506301ffc9a760e01b6001600160e01b0319831614610af1565b5f6001600160e01b0319821663152a902d60e11b1480610af15750610af1826118d0565b5f546001600160a01b03163314610e865760405163118cdaa760e01b8152336004820152602401610c25565b6127106001600160601b0382168110156119ae57604051636f483d0960e01b81526001600160601b038316600482015260248101829052604401610c25565b6001600160a01b0383166119d757604051635b6cc80560e11b81525f6004820152602401610c25565b50604080518082019091526001600160a01b039092168083526001600160601b039091166020909201829052600160a01b90910217600c55565b5f818152600760205260408120546001600160a01b031680610af157604051637e27328960e01b815260048101849052602401610c25565b610ea283838360016123f9565b63ffffffff81165f9081526001602052604081205480610af15760405163f6ff4fb760e01b815263ffffffff84166004820152602401610c25565b5f8080611aa08789018961393c565b9250925092505f611aae8490565b9050611ac78184611ac260208f018f613265565b6124fd565b5f838152601160205260409020611ade838261399a565b506001600160a01b0381168a7f7883fa30ea56937810e36990b0bbb8d629d0cf59f68baf8431ff657cebe7eef5611b1860208f018f613265565b6040805163ffffffff9092168252602082018890520160405180910390a35050505050505050505050565b611b4b6123bc565b611b5482610f9b565b6001600160a01b0316836001600160a01b031614611b84576040516282b42960e81b815260040160405180910390fd5b5f828152601060205260408120805464ff000000001916640100000000178155600101805491611bb383613924565b9190505550610ea2826125f0565b6060805f60115f856040013581526020019081526020015f208054611be590613405565b80601f0160208091040260200160405190810160405280929190818152602001828054611c1190613405565b8015611c5c5780601f10611c3357610100808354040283529160200191611c5c565b820191905f5260205f20905b815481529060010190602001808311611c3f57829003601f168201915b505050505090508360200135846040013582604051602001611c8093929190613a55565b60408051601f198184030181529190529250611cb1611ca26020860186613265565b600161094060608801886137b3565b6004549092506001600160a01b03168015611d355760405163043a78eb60e01b81526001600160a01b0382169063043a78eb90611cf49087908790600401613a73565b602060405180830381865afa158015611d0f573d5f803e3d5ffd5b505050506040513d601f19601f82011682018060405250810190611d339190613a97565b505b5050915091565b611d44612bac565b5f611d51845f0151612628565b602085015190915015611d6b57611d6b846020015161264f565b7f00000000000000000000000000000000000000000000000000000000000000006001600160a01b0316632637a450826040518060a001604052808b63ffffffff168152602001611dbb8c611a56565b81526020018a81526020018981526020015f8960200151111515815250866040518463ffffffff1660e01b8152600401611df6929190613ab2565b60806040518083038185885af1158015611e12573d5f803e3d5ffd5b50505050506040513d601f19601f82011682018060405250810190611e379190613b58565b979650505050505050565b5f611e4b6123bc565b6110fa84848461272e565b63ffffffff82165f81815260016020908152604091829020849055815192835282018390527f238399d427b947898edb290f5ff0f9109849b1c3ba196a42e35f00c50a54b98b9101610f8f565b611eab612820565b600e805460ff191690557f5db9ee0a495bf2e6ff9c91a7834c1ba4fdd244a5e8aa4e537bd38aeae4b073aa335b6040516001600160a01b03909116815260200160405180910390a1565b5f80546001600160a01b038381166001600160a01b0319831681178455604051919092169283917f8be0079c531659141344cd1fd0a4f28419497f9722a3daafe3b4186f6b6457e09190a35050565b611f4c6123bc565b600e805460ff191660011790557f62e78cea01bee320cd4e420270b5ea74000d11b0c9f74754ebdbfc544b05a258611ed83390565b6001600160a01b038216611fb357604051630b61174360e31b81526001600160a01b0383166004820152602401610c25565b6001600160a01b038381165f818152600a6020908152604080832094871680845294825291829020805460ff191686151590811790915591519182527f17307eab39ab6107e8899845ad3d59bd9653f200f220920489ca2b5937696c31910160405180910390a3505050565b6001600160a01b0383163b1561163457604051630a85bd0160e11b81526001600160a01b0384169063150b7a0290612061908890889087908790600401613ba0565b6020604051808303815f875af192505050801561209b575060408051601f3d908101601f1916820190925261209891810190613bdc565b60015b612102573d8080156120c8576040519150601f19603f3d011682016040523d82523d5f602084013e6120cd565b606091505b5080515f036120fa57604051633250574960e11b81526001600160a01b0385166004820152602401610c25565b805160208201fd5b6001600160e01b03198116630a85bd0160e11b1461213e57604051633250574960e11b81526001600160a01b0385166004820152602401610c25565b505050505050565b5f5b81518110156122175761217782828151811061216657612166613780565b602002602001015160400151612247565b81818151811061218957612189613780565b60200260200101516040015160035f8484815181106121aa576121aa613780565b60200260200101515f015163ffffffff1663ffffffff1681526020019081526020015f205f8484815181106121e1576121e1613780565b60200260200101516020015161ffff1661ffff1681526020019081526020015f20908161220e919061399a565b50600101612148565b507fbe4864a8e820971c0247f5992e2da559595f7bf076a21cb5928d443d2a13b674816040516110449190613bf7565b600281015161ffff8116600314610b185781604051639a6d49cd60e01b8152600401610c259190612cd9565b604080518082019091525f80825260208201527f00000000000000000000000000000000000000000000000000000000000000006001600160a01b031663ddc28c586040518060a001604052808863ffffffff1681526020016122d589611a56565b8152602001878152602001868152602001851515815250306040518363ffffffff1660e01b815260040161230a929190613ab2565b6040805180830381865afa158015612324573d5f803e3d5ffd5b505050506040513d601f19601f820116820180604052508101906114ba9190613c80565b6060600b8054610b2b90613405565b606061236282611a11565b505f61236c612348565b90505f81511161238a5760405180602001604052805f8152506123b5565b8061239484612843565b6040516020016123a59291906138f6565b6040516020818303038152906040525b9392505050565b600e5460ff1615610e865760405163d93c066560e01b815260040160405180910390fd5b610b18828260405180602001604052805f8152506128d2565b808061240d57506001600160a01b03821615155b156124ce575f61241c84611a11565b90506001600160a01b038316158015906124485750826001600160a01b0316816001600160a01b031614155b801561245b57506124598184611832565b155b156124845760405163a9fbf51f60e01b81526001600160a01b0384166004820152602401610c25565b81156124cc5783856001600160a01b0316826001600160a01b03167f8c5be1e5ebec7d5bd14f71427d1e84f3dd0314c0f7b2291e5b200ac8c7c3b92560405160405180910390a45b505b50505f90815260096020526040902080546001600160a01b0319166001600160a01b0392909216919091179055565b61250783836123e0565b5f612516633b9aca00846133f2565b90505f612527633b9aca0085613605565b90507f000000000000000000000000000000000000000000000000000000000000000063ffffffff168263ffffffff161480156125665750600f548110155b1561257a57612576816001613618565b600f555b5f8481526010602052604081205463ffffffff1690036125b5575f848152601060205260409020805463ffffffff191663ffffffff85161790555b5f848152601060205260408120805464ff0000000019166401000000001781556001018054916125e483613924565b91905055505050505050565b5f6125fc5f835f611e42565b90506001600160a01b038116610b1857604051637e27328960e01b815260048101839052602401610c25565b5f81341461264b576040516304fb820960e51b8152346004820152602401610c25565b5090565b5f7f00000000000000000000000000000000000000000000000000000000000000006001600160a01b031663e4fe1d946040518163ffffffff1660e01b8152600401602060405180830381865afa1580156126ac573d5f803e3d5ffd5b505050506040513d601f19601f820116820180604052508101906126d09190613c9a565b90506001600160a01b0381166126f9576040516329b99a9560e11b815260040160405180910390fd5b610b186001600160a01b038216337f0000000000000000000000000000000000000000000000000000000000000000856128e9565b5f828152600760205260408120546001600160a01b039081169083161561275a5761275a818486612943565b6001600160a01b03811615612794576127755f855f806123f9565b6001600160a01b0381165f90815260086020526040902080545f190190555b6001600160a01b038516156127c2576001600160a01b0385165f908152600860205260409020805460010190555b5f8481526007602052604080822080546001600160a01b0319166001600160a01b0389811691821790925591518793918516917fddf252ad1be2c89b69c2b068fc378daa952ba7f163c4a11628f55a4df523b3ef91a4949350505050565b600e5460ff16610e8657604051638dfc202b60e01b815260040160405180910390fd5b60605f61284f836129a7565b60010190505f816001600160401b0381111561286d5761286d61307f565b6040519080825280601f01601f191660200182016040528015612897576020820181803683370190505b5090508181016020015b5f19016f181899199a1a9b1b9c1cb0b131b232b360811b600a86061a8153600a85049450846128a157509392505050565b6128dc8383612a7e565b610ea2335f85858561201f565b604080516001600160a01b0385811660248301528416604482015260648082018490528251808303909101815260849091019091526020810180516001600160e01b03166323b872dd60e01b179052610dd9908590612adf565b61294e838383612b4b565b610ea2576001600160a01b03831661297c57604051637e27328960e01b815260048101829052602401610c25565b60405163177e802f60e01b81526001600160a01b038316600482015260248101829052604401610c25565b5f8072184f03e93ff9f4daa797ed6e38ed64bf6a1f0160401b83106129e55772184f03e93ff9f4daa797ed6e38ed64bf6a1f0160401b830492506040015b6d04ee2d6d415b85acef81000000008310612a11576d04ee2d6d415b85acef8100000000830492506020015b662386f26fc100008310612a2f57662386f26fc10000830492506010015b6305f5e1008310612a47576305f5e100830492506008015b6127108310612a5b57612710830492506004015b60648310612a6d576064830492506002015b600a8310610af15760010192915050565b6001600160a01b038216612aa757604051633250574960e11b81525f6004820152602401610c25565b5f612ab383835f611e42565b90506001600160a01b03811615610ea2576040516339e3563760e11b81525f6004820152602401610c25565b5f8060205f8451602086015f885af180612afe576040513d5f823e3d81fd5b50505f513d91508115612b15578060011415612b22565b6001600160a01b0384163b155b15610dd957604051635274afe760e01b81526001600160a01b0385166004820152602401610c25565b5f6001600160a01b038316158015906110fa5750826001600160a01b0316846001600160a01b03161480612b845750612b848484611832565b806110fa5750505f908152600960205260409020546001600160a01b03908116911614919050565b60405180606001604052805f80191681526020015f6001600160401b03168152602001612bea60405180604001604052805f81526020015f81525090565b905290565b6001600160e01b031981168114611899575f80fd5b5f60208284031215612c14575f80fd5b81356123b581612bef565b5f60208284031215612c2f575f80fd5b5035919050565b6001600160a01b0381168114611899575f80fd5b5f8060408385031215612c5b575f80fd5b8235612c6681612c36565b915060208301356001600160601b0381168114612c81575f80fd5b809150509250929050565b5f5b83811015612ca6578181015183820152602001612c8e565b50505f910152565b5f8151808452612cc5816020860160208601612c8c565b601f01601f19169290920160200192915050565b602081525f6123b56020830184612cae565b5f8060408385031215612cfc575f80fd5b8235612d0781612c36565b946020939093013593505050565b5f60608284031215612d25575f80fd5b50919050565b5f8083601f840112612d3b575f80fd5b5081356001600160401b03811115612d51575f80fd5b602083019150836020828501011115610e5d575f80fd5b5f805f805f805f60e0888a031215612d7e575f80fd5b612d888989612d15565b96506060880135955060808801356001600160401b0380821115612daa575f80fd5b612db68b838c01612d2b565b909750955060a08a01359150612dcb82612c36565b90935060c08901359080821115612de0575f80fd5b50612ded8a828b01612d2b565b989b979a50959850939692959293505050565b5f60c08284031215612d25575f80fd5b5f805f8385036080811215612e23575f80fd5b84356001600160401b03811115612e38575f80fd5b612e4487828801612e00565b9450506040601f1982011215612e58575f80fd5b506020840191506060840135612e6d81612c36565b809150509250925092565b5f608082019050825182526001600160401b0360208401511660208301526040830151612eb2604084018280518252602090810151910152565b5092915050565b5f805f60608486031215612ecb575f80fd5b8335612ed681612c36565b92506020840135612ee681612c36565b929592945050506040919091013590565b5f8060408385031215612f08575f80fd5b50508035926020909101359150565b803563ffffffff81168114612f2a575f80fd5b919050565b5f8060408385031215612f40575f80fd5b612d0783612f17565b803561ffff81168114612f2a575f80fd5b5f8060408385031215612f6b575f80fd5b612f7483612f17565b9150612f8260208401612f49565b90509250929050565b5f8060208385031215612f9c575f80fd5b82356001600160401b03811115612fb1575f80fd5b612fbd85828601612d2b565b90969095509350505050565b5f60208284031215612fd9575f80fd5b81356123b581612c36565b5f805f8060a08587031215612ff7575f80fd5b6130018686612d15565b935060608501356001600160401b0381111561301b575f80fd5b61302787828801612d2b565b909450925050608085013561303b81612c36565b939692955090935050565b8015158114611899575f80fd5b5f8060408385031215613064575f80fd5b823561306f81612c36565b91506020830135612c8181613046565b634e487b7160e01b5f52604160045260245ffd5b604080519081016001600160401b03811182821017156130b5576130b561307f565b60405290565b604051606081016001600160401b03811182821017156130b5576130b561307f565b604051601f8201601f191681016001600160401b03811182821017156131055761310561307f565b604052919050565b5f6001600160401b038211156131255761312561307f565b50601f01601f191660200190565b5f6131456131408461310d565b6130dd565b9050828152838383011115613158575f80fd5b828260208301375f602084830101529392505050565b5f82601f83011261317d575f80fd5b6123b583833560208501613133565b5f805f806080858703121561319f575f80fd5b84356131aa81612c36565b935060208501356131ba81612c36565b92506040850135915060608501356001600160401b038111156131db575f80fd5b6131e78782880161316e565b91505092959194509250565b5f8083601f840112613203575f80fd5b5081356001600160401b03811115613219575f80fd5b6020830191508360208260051b8501011115610e5d575f80fd5b5f8060208385031215613244575f80fd5b82356001600160401b03811115613259575f80fd5b612fbd858286016131f3565b5f60208284031215613275575f80fd5b6123b582612f17565b5f805f8060608587031215613291575f80fd5b61329a85612f17565b93506132a860208601612f49565b925060408501356001600160401b038111156132c2575f80fd5b6132ce87828801612d2b565b95989497509550505050565b5f80604083850312156132eb575f80fd5b82356001600160401b03811115613300575f80fd5b61330c85828601612e00565b9250506020830135612c8181613046565b815181526020808301519082015260408101610af1565b5f805f60408486031215613346575f80fd5b833561335181612c36565b925060208401356001600160401b0381111561336b575f80fd5b61337786828701612d2b565b9497909650939450505050565b5f8060408385031215613395575f80fd5b82356133a081612c36565b91506020830135612c8181612c36565b5f606082840312156133c0575f80fd5b6123b58383612d15565b634e487b7160e01b5f52601260045260245ffd5b634e487b7160e01b5f52601160045260245ffd5b5f82613400576134006133ca565b500490565b600181811c9082168061341957607f821691505b602082108103612d2557634e487b7160e01b5f52602260045260245ffd5b5f60408284031215613447575f80fd5b61344f613093565b82358152602083013560208201528091505092915050565b8082028115828204841417610af157610af16133de565b601f821115610ea257805f5260205f20601f840160051c810160208510156134a35750805b601f840160051c820191505b81811015611634575f81556001016134af565b6001600160401b038311156134d9576134d961307f565b6134ed836134e78354613405565b8361347e565b5f601f84116001811461351e575f85156135075750838201355b5f19600387901b1c1916600186901b178355611634565b5f83815260208120601f198716915b8281101561354d578685013582556020948501946001909201910161352d565b5086821015613569575f1960f88860031b161c19848701351681555b505060018560011b0183555050505050565b5f60208083525f845461358d81613405565b806020870152604060018084165f81146135ae57600181146135ca576135f7565b60ff19851660408a0152604084151560051b8a010195506135f7565b895f5260205f205f5b858110156135ee5781548b82018601529083019088016135d3565b8a016040019650505b509398975050505050505050565b5f82613613576136136133ca565b500690565b80820180821115610af157610af16133de565b5f6001600160401b03808411156136445761364461307f565b8360051b60206136558183016130dd565b86815291850191818101903684111561366c575f80fd5b865b848110156136ec57803586811115613684575f80fd5b88016060368290031215613696575f80fd5b61369e6130bb565b6136a782612f17565b81526136b4868301612f49565b86820152604080830135898111156136ca575f80fd5b6136d63682860161316e565b918301919091525084525091830191830161366e565b50979650505050505050565b5f8085851115613706575f80fd5b83861115613712575f80fd5b5050820193919092039150565b5f8451613730818460208901612c8c565b8201838582375f930192835250909392505050565b81835281816020850137505f828201602090810191909152601f909101601f19169091010190565b602081525f6110fa602083018486613745565b634e487b7160e01b5f52603260045260245ffd5b5f823561013e198336030181126137a9575f80fd5b9190910192915050565b5f808335601e198436030181126137c8575f80fd5b8301803591506001600160401b038211156137e1575f80fd5b602001915036819003821315610e5d575f80fd5b6001600160401b0381168114611899575f80fd5b63ffffffff61381789612f17565b168152602088013560208201525f6040890135613833816137f5565b6001600160401b03811660408401525087606083015260e0608083015261385e60e083018789613745565b6001600160a01b03861660a084015282810360c0840152613880818587613745565b9a9950505050505050505050565b5f6020828403121561389e575f80fd5b81516001600160401b038111156138b3575f80fd5b8201601f810184136138c3575f80fd5b80516138d16131408261310d565b8181528560208385010111156138e5575f80fd5b6114ba826020830160208601612c8c565b5f8351613907818460208801612c8c565b83519083019061391b818360208801612c8c565b01949350505050565b5f60018201613935576139356133de565b5060010190565b5f805f6060848603121561394e575f80fd5b833592506020840135915060408401356001600160401b03811115613971575f80fd5b8401601f81018613613981575f80fd5b61399086823560208401613133565b9150509250925092565b81516001600160401b038111156139b3576139b361307f565b6139c7816139c18454613405565b8461347e565b602080601f8311600181146139fa575f84156139e35750858301515b5f19600386901b1c1916600185901b17855561213e565b5f85815260208120601f198616915b82811015613a2857888601518255948401946001909101908401613a09565b5085821015613a4557878501515f19600388901b60f8161c191681555b5050505050600190811b01905550565b838152826020820152606060408201525f6114ba6060830184612cae565b604081525f613a856040830185612cae565b82810360208401526114ba8185612cae565b5f60208284031215613aa7575f80fd5b81516123b581613046565b6040815263ffffffff8351166040820152602083015160608201525f604084015160a06080840152613ae760e0840182612cae565b90506060850151603f198483030160a0850152613b048282612cae565b60809690960151151560c08501525050506001600160a01b039190911660209091015290565b5f60408284031215613b3a575f80fd5b613b42613093565b9050815181526020820151602082015292915050565b5f60808284031215613b68575f80fd5b613b706130bb565b825181526020830151613b82816137f5565b6020820152613b948460408501613b2a565b60408201529392505050565b6001600160a01b03858116825284166020820152604081018390526080606082018190525f90613bd290830184612cae565b9695505050505050565b5f60208284031215613bec575f80fd5b81516123b581612bef565b5f60208083018184528085518083526040925060408601915060408160051b8701018488015f5b83811015613c7257888303603f190185528151805163ffffffff1684528781015161ffff16888501528601516060878501819052613c5e81860183612cae565b968901969450505090860190600101613c1e565b509098975050505050505050565b5f60408284031215613c90575f80fd5b6123b58383613b2a565b5f60208284031215613caa575f80fd5b81516123b581612c3656fea2646970667358221220da40093fdad7a166e3672e098446d0b217a584e5506468ef074267dc79c66ddd64736f6c63430008170033","linkReferences":{}},"methodIdentifiers":{"ORIGIN_CHAIN_ID()":"0dd85b00","SEND()":"1f5e1334","SEND_AND_COMPOSE()":"b21a33e4","allowInitializePath((uint32,bytes32,uint64))":"ff7bd03d","approvalRequired()":"9f68b964","approve(address,uint256)":"095ea7b3","balanceOf(address)":"70a08231","bridgeInfo(uint256)":"d7bc3354","combineOptions(uint32,uint16,bytes)":"bc70b354","endpoint()":"5e280f11","enforcedOptions(uint32,uint16)":"5535d461","getApproved(uint256)":"081812fc","getLocalTokenId(uint256)":"6f29b0de","getOriginChainEid(uint256)":"02aa0a05","isApprovedForAll(address,address)":"e985e9c5","isComposeMsgSender((uint32,bytes32,uint64),bytes,address)":"82413eac","isNativeToken(uint256)":"6a864b0c","isPeer(uint32,bytes32)":"5a0dfe4d","lzReceive((uint32,bytes32,uint64),bytes32,bytes,address,bytes)":"13137d65","lzReceiveAndRevert(((uint32,bytes32,uint64),uint32,address,bytes32,uint256,address,bytes,bytes)[])":"bd815db0","lzReceiveSimulate((uint32,bytes32,uint64),bytes32,bytes,address,bytes)":"d045a0dc","mint(address,string)":"d0def521","msgInspector()":"111ecdad","name()":"06fdde03","nextLocalTokenId()":"460c2561","nextNonce(uint32,bytes32)":"7d25a05e","nextTokenId()":"75794a3c","oApp()":"52ae2879","oAppVersion()":"17442b70","onftVersion()":"a72f5dd8","owner()":"8da5cb5b","ownerOf(uint256)":"6352211e","pause()":"8456cb59","paused()":"5c975abb","peers(uint32)":"bb0b6a53","preCrime()":"b731ea0a","quoteSend((uint32,bytes32,uint256,bytes,bytes,bytes),bool)":"c6414e7b","renounceOwnership()":"715018a6","royaltyInfo(uint256,uint256)":"2a55205a","safeTransferFrom(address,address,uint256)":"42842e0e","safeTransferFrom(address,address,uint256,bytes)":"b88d4fde","send((uint32,bytes32,uint256,bytes,bytes,bytes),(uint256,uint256),address)":"21eb730b","setApprovalForAll(address,bool)":"a22cb465","setBaseURI(string)":"55f804b3","setDefaultRoyalty(address,uint96)":"04634d8d","setDelegate(address)":"ca5eb5e1","setEnforcedOptions((uint32,uint16,bytes)[])":"b98bd070","setMsgInspector(address)":"6fc1b31e","setPeer(uint32,bytes32)":"3400288b","setPreCrime(address)":"d4243885","supportsInterface(bytes4)":"01ffc9a7","symbol()":"95d89b41","token()":"fc0c546a","tokenURI(uint256)":"c87b56dd","transferFrom(address,address,uint256)":"23b872dd","transferOwnership(address)":"f2fde38b","unpause()":"3f4ba83a"},"id":0}