{
  "_format": "hh-sol-artifact-1",
  "contractName": "WavePortal",
  "sourceName": "contracts/Wave-Portal.sol",
  "abi": [
    {
      "inputs": [],
      "stateMutability": "payable",
      "type": "constructor"
    },
    {
      "anonymous": false,
      "inputs": [
        {
          "indexed": false,
          "internalType": "enum WavePortal.Reaction",
          "name": "reaction",
          "type": "uint8"
        },
        {
          "indexed": false,
          "internalType": "string",
          "name": "message",
          "type": "string"
        },
        {
          "indexed": true,
          "internalType": "address",
          "name": "from",
          "type": "address"
        },
        {
          "indexed": false,
          "internalType": "uint256",
          "name": "timestamp",
          "type": "uint256"
        }
      ],
      "name": "NewWave",
      "type": "event"
    },
    {
      "inputs": [],
      "name": "getAllWaves",
      "outputs": [
        {
          "components": [
            {
              "internalType": "enum WavePortal.Reaction",
              "name": "reaction",
              "type": "uint8"
            },
            {
              "internalType": "string",
              "name": "message",
              "type": "string"
            },
            {
              "internalType": "address",
              "name": "waver",
              "type": "address"
            },
            {
              "internalType": "uint256",
              "name": "timestamp",
              "type": "uint256"
            }
          ],
          "internalType": "struct WavePortal.Wave[]",
          "name": "",
          "type": "tuple[]"
        }
      ],
      "stateMutability": "view",
      "type": "function"
    },
    {
      "inputs": [],
      "name": "getTotalWaves",
      "outputs": [
        {
          "internalType": "uint256",
          "name": "",
          "type": "uint256"
        }
      ],
      "stateMutability": "view",
      "type": "function"
    },
    {
      "inputs": [
        {
          "internalType": "address",
          "name": "",
          "type": "address"
        }
      ],
      "name": "lastWavedAt",
      "outputs": [
        {
          "internalType": "uint256",
          "name": "",
          "type": "uint256"
        }
      ],
      "stateMutability": "view",
      "type": "function"
    },
    {
      "inputs": [
        {
          "internalType": "enum WavePortal.Reaction",
          "name": "_reaction",
          "type": "uint8"
        },
        {
          "internalType": "string",
          "name": "_message",
          "type": "string"
        }
      ],
      "name": "wave",
      "outputs": [],
      "stateMutability": "nonpayable",
      "type": "function"
    },
    {
      "inputs": [
        {
          "internalType": "uint256",
          "name": "",
          "type": "uint256"
        }
      ],
      "name": "waveList",
      "outputs": [
        {
          "internalType": "enum WavePortal.Reaction",
          "name": "reaction",
          "type": "uint8"
        },
        {
          "internalType": "string",
          "name": "message",
          "type": "string"
        },
        {
          "internalType": "address",
          "name": "waver",
          "type": "address"
        },
        {
          "internalType": "uint256",
          "name": "timestamp",
          "type": "uint256"
        }
      ],
      "stateMutability": "view",
      "type": "function"
    }
  ],
  "bytecode": "0x60806040526112a7806100136000396000f3fe608060405234801561001057600080fd5b50600436106100575760003560e01c806348c29f141461005c5780638b9c3ecd146100785780639a2cdc08146100ab578063a42a4663146100c9578063bd43a908146100f9575b600080fd5b610076600480360381019061007191906109e2565b610117565b005b610092600480360381019061008d9190610a36565b61057d565b6040516100a29493929190610cda565b60405180910390f35b6100b3610672565b6040516100c09190610dc4565b60405180910390f35b6100e360048036038101906100de91906109b9565b61067f565b6040516100f09190610dc4565b60405180910390f35b610101610697565b60405161010e9190610cb8565b60405180910390f35b42610384600360003373ffffffffffffffffffffffffffffffffffffffff1673ffffffffffffffffffffffffffffffffffffffff168152602001908152602001600020546101659190610ea6565b106101a5576040517f08c379a000000000000000000000000000000000000000000000000000000000815260040161019c90610da4565b60405180910390fd5b42600360003373ffffffffffffffffffffffffffffffffffffffff1673ffffffffffffffffffffffffffffffffffffffff1681526020019081526020016000208190555060016000808282546101fb9190610ea6565b9250508190555060026040518060800160405280846002811115610248577f4e487b7100000000000000000000000000000000000000000000000000000000600052602160045260246000fd5b81526020018381526020013373ffffffffffffffffffffffffffffffffffffffff16815260200142815250908060018154018082558091505060019003906000526020600020906004020160009091909190915060008201518160000160006101000a81548160ff021916908360028111156102ed577f4e487b7100000000000000000000000000000000000000000000000000000000600052602160045260246000fd5b0217905550602082015181600101908051906020019061030e92919061086f565b5060408201518160020160006101000a81548173ffffffffffffffffffffffffffffffffffffffff021916908373ffffffffffffffffffffffffffffffffffffffff1602179055506060820151816003015550503373ffffffffffffffffffffffffffffffffffffffff167f2d6873fdbcd96c625e1fafa3267b0aab6e37f9be7d7a32baf9f6875c5e2984448383426040516103ac93929190610d26565b60405180910390a26000606460015442446103c79190610ea6565b6103d19190610ea6565b6103db9190611002565b905080600181905550600080600281111561041f577f4e487b7100000000000000000000000000000000000000000000000000000000600052602160045260246000fd5b846002811115610458577f4e487b7100000000000000000000000000000000000000000000000000000000600052602160045260246000fd5b141580610466575060148351115b90508080156104755750602882105b15610577576000655af3107a40009050478111156104c8576040517f08c379a00000000000000000000000000000000000000000000000000000000081526004016104bf90610d64565b60405180910390fd5b60003373ffffffffffffffffffffffffffffffffffffffff16826040516104ee90610ca3565b60006040518083038185875af1925050503d806000811461052b576040519150601f19603f3d011682016040523d82523d6000602084013e610530565b606091505b5050905080610574576040517f08c379a000000000000000000000000000000000000000000000000000000000815260040161056b90610d84565b60405180910390fd5b50505b50505050565b6002818154811061058d57600080fd5b90600052602060002090600402016000915090508060000160009054906101000a900460ff16908060010180546105c390610f9f565b80601f01602080910402602001604051908101604052809291908181526020018280546105ef90610f9f565b801561063c5780601f106106115761010080835404028352916020019161063c565b820191906000526020600020905b81548152906001019060200180831161061f57829003601f168201915b5050505050908060020160009054906101000a900473ffffffffffffffffffffffffffffffffffffffff16908060030154905084565b6000600280549050905090565b60036020528060005260406000206000915090505481565b60606002805480602002602001604051908101604052809291908181526020016000905b8282101561086657838290600052602060002090600402016040518060800160405290816000820160009054906101000a900460ff166002811115610729577f4e487b7100000000000000000000000000000000000000000000000000000000600052602160045260246000fd5b6002811115610761577f4e487b7100000000000000000000000000000000000000000000000000000000600052602160045260246000fd5b815260200160018201805461077590610f9f565b80601f01602080910402602001604051908101604052809291908181526020018280546107a190610f9f565b80156107ee5780601f106107c3576101008083540402835291602001916107ee565b820191906000526020600020905b8154815290600101906020018083116107d157829003601f168201915b505050505081526020016002820160009054906101000a900473ffffffffffffffffffffffffffffffffffffffff1673ffffffffffffffffffffffffffffffffffffffff1673ffffffffffffffffffffffffffffffffffffffff168152602001600382015481525050815260200190600101906106bb565b50505050905090565b82805461087b90610f9f565b90600052602060002090601f01602090048101928261089d57600085556108e4565b82601f106108b657805160ff19168380011785556108e4565b828001600101855582156108e4579182015b828111156108e35782518255916020019190600101906108c8565b5b5090506108f191906108f5565b5090565b5b8082111561090e5760008160009055506001016108f6565b5090565b600061092561092084610e04565b610ddf565b90508281526020810184848401111561093d57600080fd5b610948848285610f5d565b509392505050565b60008135905061095f81611233565b92915050565b6000813590506109748161124a565b92915050565b600082601f83011261098b57600080fd5b813561099b848260208601610912565b91505092915050565b6000813590506109b38161125a565b92915050565b6000602082840312156109cb57600080fd5b60006109d984828501610950565b91505092915050565b600080604083850312156109f557600080fd5b6000610a0385828601610965565b925050602083013567ffffffffffffffff811115610a2057600080fd5b610a2c8582860161097a565b9150509250929050565b600060208284031215610a4857600080fd5b6000610a56848285016109a4565b91505092915050565b6000610a6b8383610c22565b905092915050565b610a7c81610efc565b82525050565b610a8b81610efc565b82525050565b6000610a9c82610e45565b610aa68185610e68565b935083602082028501610ab885610e35565b8060005b85811015610af45784840389528151610ad58582610a5f565b9450610ae083610e5b565b925060208a01995050600181019050610abc565b50829750879550505050505092915050565b610b0f81610f4b565b82525050565b610b1e81610f4b565b82525050565b6000610b2f82610e50565b610b398185610e84565b9350610b49818560208601610f6c565b610b528161111e565b840191505092915050565b6000610b6882610e50565b610b728185610e95565b9350610b82818560208601610f6c565b610b8b8161111e565b840191505092915050565b6000610ba3602f83610e95565b9150610bae8261112f565b604082019050919050565b6000610bc6602783610e95565b9150610bd18261117e565b604082019050919050565b6000610be9602583610e95565b9150610bf4826111cd565b604082019050919050565b6000610c0c600083610e79565b9150610c178261121c565b600082019050919050565b6000608083016000830151610c3a6000860182610b06565b5060208301518482036020860152610c528282610b24565b9150506040830151610c676040860182610a73565b506060830151610c7a6060860182610c85565b508091505092915050565b610c8e81610f41565b82525050565b610c9d81610f41565b82525050565b6000610cae82610bff565b9150819050919050565b60006020820190508181036000830152610cd28184610a91565b905092915050565b6000608082019050610cef6000830187610b15565b8181036020830152610d018186610b5d565b9050610d106040830185610a82565b610d1d6060830184610c94565b95945050505050565b6000606082019050610d3b6000830186610b15565b8181036020830152610d4d8185610b5d565b9050610d5c6040830184610c94565b949350505050565b60006020820190508181036000830152610d7d81610b96565b9050919050565b60006020820190508181036000830152610d9d81610bb9565b9050919050565b60006020820190508181036000830152610dbd81610bdc565b9050919050565b6000602082019050610dd96000830184610c94565b92915050565b6000610de9610dfa565b9050610df58282610fd1565b919050565b6000604051905090565b600067ffffffffffffffff821115610e1f57610e1e6110ef565b5b610e288261111e565b9050602081019050919050565b6000819050602082019050919050565b600081519050919050565b600081519050919050565b6000602082019050919050565b600082825260208201905092915050565b600081905092915050565b600082825260208201905092915050565b600082825260208201905092915050565b6000610eb182610f41565b9150610ebc83610f41565b9250827fffffffffffffffffffffffffffffffffffffffffffffffffffffffffffffffff03821115610ef157610ef0611033565b5b828201905092915050565b6000610f0782610f21565b9050919050565b6000819050610f1c8261121f565b919050565b600073ffffffffffffffffffffffffffffffffffffffff82169050919050565b6000819050919050565b6000610f5682610f0e565b9050919050565b82818337600083830152505050565b60005b83811015610f8a578082015181840152602081019050610f6f565b83811115610f99576000848401525b50505050565b60006002820490506001821680610fb757607f821691505b60208210811415610fcb57610fca6110c0565b5b50919050565b610fda8261111e565b810181811067ffffffffffffffff82111715610ff957610ff86110ef565b5b80604052505050565b600061100d82610f41565b915061101883610f41565b92508261102857611027611062565b5b828206905092915050565b7f4e487b7100000000000000000000000000000000000000000000000000000000600052601160045260246000fd5b7f4e487b7100000000000000000000000000000000000000000000000000000000600052601260045260246000fd5b7f4e487b7100000000000000000000000000000000000000000000000000000000600052602160045260246000fd5b7f4e487b7100000000000000000000000000000000000000000000000000000000600052602260045260246000fd5b7f4e487b7100000000000000000000000000000000000000000000000000000000600052604160045260246000fd5b6000601f19601f8301169050919050565b7f436f6e74726163742066756e64732061726520696e73756666696369656e742060008201527f746f206772616e74207072697a652e0000000000000000000000000000000000602082015250565b7f4661696c656420746f207769746864726177206d6f6e65792066726f6d20636f60008201527f6e74726163742e00000000000000000000000000000000000000000000000000602082015250565b7f57616974203135206d696e7574657320746f2073656e6420616e6f746865722060008201527f776176652e000000000000000000000000000000000000000000000000000000602082015250565b50565b600381106112305761122f611091565b5b50565b61123c81610efc565b811461124757600080fd5b50565b6003811061125757600080fd5b50565b61126381610f41565b811461126e57600080fd5b5056fea2646970667358221220b599f5241ce99102c987c6d1a965926bb71e50e382a09c236613fe8303261dcd64736f6c63430008040033",
  "linkReferences": {},
  "deployedLinkReferences": {}
}