{
  "contracts/Wave-Portal.sol": {
    "WavePortal": {
      "abi": [
        {
          "inputs": [],
          "stateMutability": "payable",
          "type": "constructor"
        },
        {
          "anonymous": false,
          "inputs": [
            {
              "indexed": false,
              "internalType": "enum WavePortal.Reaction",
              "name": "reaction",
              "type": "uint8"
            },
            {
              "indexed": false,
              "internalType": "string",
              "name": "message",
              "type": "string"
            },
            {
              "indexed": true,
              "internalType": "address",
              "name": "from",
              "type": "address"
            },
            {
              "indexed": false,
              "internalType": "uint256",
              "name": "timestamp",
              "type": "uint256"
            }
          ],
          "name": "NewWave",
          "type": "event"
        },
        {
          "inputs": [],
          "name": "getAllWaves",
          "outputs": [
            {
              "components": [
                {
                  "internalType": "enum WavePortal.Reaction",
                  "name": "reaction",
                  "type": "uint8"
                },
                {
                  "internalType": "string",
                  "name": "message",
                  "type": "string"
                },
                {
                  "internalType": "address",
                  "name": "waver",
                  "type": "address"
                },
                {
                  "internalType": "uint256",
                  "name": "timestamp",
                  "type": "uint256"
                }
              ],
              "internalType": "struct WavePortal.Wave[]",
              "name": "",
              "type": "tuple[]"
            }
          ],
          "stateMutability": "view",
          "type": "function"
        },
        {
          "inputs": [],
          "name": "getTotalWaves",
          "outputs": [
            {
              "internalType": "uint256",
              "name": "",
              "type": "uint256"
            }
          ],
          "stateMutability": "view",
          "type": "function"
        },
        {
          "inputs": [
            {
              "internalType": "address",
              "name": "",
              "type": "address"
            }
          ],
          "name": "lastWavedAt",
          "outputs": [
            {
              "internalType": "uint256",
              "name": "",
              "type": "uint256"
            }
          ],
          "stateMutability": "view",
          "type": "function"
        },
        {
          "inputs": [
            {
              "internalType": "enum WavePortal.Reaction",
              "name": "_reaction",
              "type": "uint8"
            },
            {
              "internalType": "string",
              "name": "_message",
              "type": "string"
            }
          ],
          "name": "wave",
          "outputs": [],
          "stateMutability": "nonpayable",
          "type": "function"
        },
        {
          "inputs": [
            {
              "internalType": "uint256",
              "name": "",
              "type": "uint256"
            }
          ],
          "name": "waveList",
          "outputs": [
            {
              "internalType": "enum WavePortal.Reaction",
              "name": "reaction",
              "type": "uint8"
            },
            {
              "internalType": "string",
              "name": "message",
              "type": "string"
            },
            {
              "internalType": "address",
              "name": "waver",
              "type": "address"
            },
            {
              "internalType": "uint256",
              "name": "timestamp",
              "type": "uint256"
            }
          ],
          "stateMutability": "view",
          "type": "function"
        }
      ],
      "evm": {
        "bytecode": {
          "linkReferences": {},
          "object": "6080604052611143806100136000396000f3fe608060405234801561001057600080fd5b50600436106100575760003560e01c806348c29f141461005c5780638b9c3ecd146100785780639a2cdc08146100ab578063a42a4663146100c9578063bd43a908146100f9575b600080fd5b61007660048036038101906100719190610910565b610117565b005b610092600480360381019061008d9190610964565b6104ab565b6040516100a29493929190610be5565b60405180910390f35b6100b36105a0565b6040516100c09190610caf565b60405180910390f35b6100e360048036038101906100de91906108e7565b6105ad565b6040516100f09190610caf565b60405180910390f35b6101016105c5565b60405161010e9190610bc3565b60405180910390f35b60016000808282546101299190610d91565b9250508190555060026040518060800160405280846002811115610176577f4e487b7100000000000000000000000000000000000000000000000000000000600052602160045260246000fd5b81526020018381526020013373ffffffffffffffffffffffffffffffffffffffff16815260200142815250908060018154018082558091505060019003906000526020600020906004020160009091909190915060008201518160000160006101000a81548160ff0219169083600281111561021b577f4e487b7100000000000000000000000000000000000000000000000000000000600052602160045260246000fd5b0217905550602082015181600101908051906020019061023c92919061079d565b5060408201518160020160006101000a81548173ffffffffffffffffffffffffffffffffffffffff021916908373ffffffffffffffffffffffffffffffffffffffff1602179055506060820151816003015550503373ffffffffffffffffffffffffffffffffffffffff167f2d6873fdbcd96c625e1fafa3267b0aab6e37f9be7d7a32baf9f6875c5e2984448383426040516102da93929190610c31565b60405180910390a26000606460015442446102f59190610d91565b6102ff9190610d91565b6103099190610eed565b905080600181905550600080600281111561034d577f4e487b7100000000000000000000000000000000000000000000000000000000600052602160045260246000fd5b846002811115610386577f4e487b7100000000000000000000000000000000000000000000000000000000600052602160045260246000fd5b141580610394575060148351115b90508080156103a35750602882105b156104a5576000655af3107a40009050478111156103f6576040517f08c379a00000000000000000000000000000000000000000000000000000000081526004016103ed90610c6f565b60405180910390fd5b60003373ffffffffffffffffffffffffffffffffffffffff168260405161041c90610bae565b60006040518083038185875af1925050503d8060008114610459576040519150601f19603f3d011682016040523d82523d6000602084013e61045e565b606091505b50509050806104a2576040517f08c379a000000000000000000000000000000000000000000000000000000000815260040161049990610c8f565b60405180910390fd5b50505b50505050565b600281815481106104bb57600080fd5b90600052602060002090600402016000915090508060000160009054906101000a900460ff16908060010180546104f190610e8a565b80601f016020809104026020016040519081016040528092919081815260200182805461051d90610e8a565b801561056a5780601f1061053f5761010080835404028352916020019161056a565b820191906000526020600020905b81548152906001019060200180831161054d57829003601f168201915b5050505050908060020160009054906101000a900473ffffffffffffffffffffffffffffffffffffffff16908060030154905084565b6000600280549050905090565b60036020528060005260406000206000915090505481565b60606002805480602002602001604051908101604052809291908181526020016000905b8282101561079457838290600052602060002090600402016040518060800160405290816000820160009054906101000a900460ff166002811115610657577f4e487b7100000000000000000000000000000000000000000000000000000000600052602160045260246000fd5b600281111561068f577f4e487b7100000000000000000000000000000000000000000000000000000000600052602160045260246000fd5b81526020016001820180546106a390610e8a565b80601f01602080910402602001604051908101604052809291908181526020018280546106cf90610e8a565b801561071c5780601f106106f15761010080835404028352916020019161071c565b820191906000526020600020905b8154815290600101906020018083116106ff57829003601f168201915b505050505081526020016002820160009054906101000a900473ffffffffffffffffffffffffffffffffffffffff1673ffffffffffffffffffffffffffffffffffffffff1673ffffffffffffffffffffffffffffffffffffffff168152602001600382015481525050815260200190600101906105e9565b50505050905090565b8280546107a990610e8a565b90600052602060002090601f0160209004810192826107cb5760008555610812565b82601f106107e457805160ff1916838001178555610812565b82800160010185558215610812579182015b828111156108115782518255916020019190600101906107f6565b5b50905061081f9190610823565b5090565b5b8082111561083c576000816000905550600101610824565b5090565b600061085361084e84610cef565b610cca565b90508281526020810184848401111561086b57600080fd5b610876848285610e48565b509392505050565b60008135905061088d816110cf565b92915050565b6000813590506108a2816110e6565b92915050565b600082601f8301126108b957600080fd5b81356108c9848260208601610840565b91505092915050565b6000813590506108e1816110f6565b92915050565b6000602082840312156108f957600080fd5b60006109078482850161087e565b91505092915050565b6000806040838503121561092357600080fd5b600061093185828601610893565b925050602083013567ffffffffffffffff81111561094e57600080fd5b61095a858286016108a8565b9150509250929050565b60006020828403121561097657600080fd5b6000610984848285016108d2565b91505092915050565b60006109998383610b2d565b905092915050565b6109aa81610de7565b82525050565b6109b981610de7565b82525050565b60006109ca82610d30565b6109d48185610d53565b9350836020820285016109e685610d20565b8060005b85811015610a225784840389528151610a03858261098d565b9450610a0e83610d46565b925060208a019950506001810190506109ea565b50829750879550505050505092915050565b610a3d81610e36565b82525050565b610a4c81610e36565b82525050565b6000610a5d82610d3b565b610a678185610d6f565b9350610a77818560208601610e57565b610a8081611009565b840191505092915050565b6000610a9682610d3b565b610aa08185610d80565b9350610ab0818560208601610e57565b610ab981611009565b840191505092915050565b6000610ad1602f83610d80565b9150610adc8261101a565b604082019050919050565b6000610af4602783610d80565b9150610aff82611069565b604082019050919050565b6000610b17600083610d64565b9150610b22826110b8565b600082019050919050565b6000608083016000830151610b456000860182610a34565b5060208301518482036020860152610b5d8282610a52565b9150506040830151610b7260408601826109a1565b506060830151610b856060860182610b90565b508091505092915050565b610b9981610e2c565b82525050565b610ba881610e2c565b82525050565b6000610bb982610b0a565b9150819050919050565b60006020820190508181036000830152610bdd81846109bf565b905092915050565b6000608082019050610bfa6000830187610a43565b8181036020830152610c0c8186610a8b565b9050610c1b60408301856109b0565b610c286060830184610b9f565b95945050505050565b6000606082019050610c466000830186610a43565b8181036020830152610c588185610a8b565b9050610c676040830184610b9f565b949350505050565b60006020820190508181036000830152610c8881610ac4565b9050919050565b60006020820190508181036000830152610ca881610ae7565b9050919050565b6000602082019050610cc46000830184610b9f565b92915050565b6000610cd4610ce5565b9050610ce08282610ebc565b919050565b6000604051905090565b600067ffffffffffffffff821115610d0a57610d09610fda565b5b610d1382611009565b9050602081019050919050565b6000819050602082019050919050565b600081519050919050565b600081519050919050565b6000602082019050919050565b600082825260208201905092915050565b600081905092915050565b600082825260208201905092915050565b600082825260208201905092915050565b6000610d9c82610e2c565b9150610da783610e2c565b9250827fffffffffffffffffffffffffffffffffffffffffffffffffffffffffffffffff03821115610ddc57610ddb610f1e565b5b828201905092915050565b6000610df282610e0c565b9050919050565b6000819050610e07826110bb565b919050565b600073ffffffffffffffffffffffffffffffffffffffff82169050919050565b6000819050919050565b6000610e4182610df9565b9050919050565b82818337600083830152505050565b60005b83811015610e75578082015181840152602081019050610e5a565b83811115610e84576000848401525b50505050565b60006002820490506001821680610ea257607f821691505b60208210811415610eb657610eb5610fab565b5b50919050565b610ec582611009565b810181811067ffffffffffffffff82111715610ee457610ee3610fda565b5b80604052505050565b6000610ef882610e2c565b9150610f0383610e2c565b925082610f1357610f12610f4d565b5b828206905092915050565b7f4e487b7100000000000000000000000000000000000000000000000000000000600052601160045260246000fd5b7f4e487b7100000000000000000000000000000000000000000000000000000000600052601260045260246000fd5b7f4e487b7100000000000000000000000000000000000000000000000000000000600052602160045260246000fd5b7f4e487b7100000000000000000000000000000000000000000000000000000000600052602260045260246000fd5b7f4e487b7100000000000000000000000000000000000000000000000000000000600052604160045260246000fd5b6000601f19601f8301169050919050565b7f436f6e74726163742066756e64732061726520696e73756666696369656e742060008201527f746f206772616e74207072697a652e0000000000000000000000000000000000602082015250565b7f4661696c656420746f207769746864726177206d6f6e65792066726f6d20636f60008201527f6e74726163742e00000000000000000000000000000000000000000000000000602082015250565b50565b600381106110cc576110cb610f7c565b5b50565b6110d881610de7565b81146110e357600080fd5b50565b600381106110f357600080fd5b50565b6110ff81610e2c565b811461110a57600080fd5b5056fea26469706673582212200205ab699a74f84a2f503e962710dd552efe6067aa96302b73a2f0096b39ed5764736f6c63430008040033",
          "opcodes": "PUSH1 0x80 PUSH1 0x40 MSTORE PUSH2 0x1143 DUP1 PUSH2 0x13 PUSH1 0x0 CODECOPY PUSH1 0x0 RETURN INVALID PUSH1 0x80 PUSH1 0x40 MSTORE CALLVALUE DUP1 ISZERO PUSH2 0x10 JUMPI PUSH1 0x0 DUP1 REVERT JUMPDEST POP PUSH1 0x4 CALLDATASIZE LT PUSH2 0x57 JUMPI PUSH1 0x0 CALLDATALOAD PUSH1 0xE0 SHR DUP1 PUSH4 0x48C29F14 EQ PUSH2 0x5C JUMPI DUP1 PUSH4 0x8B9C3ECD EQ PUSH2 0x78 JUMPI DUP1 PUSH4 0x9A2CDC08 EQ PUSH2 0xAB JUMPI DUP1 PUSH4 0xA42A4663 EQ PUSH2 0xC9 JUMPI DUP1 PUSH4 0xBD43A908 EQ PUSH2 0xF9 JUMPI JUMPDEST PUSH1 0x0 DUP1 REVERT JUMPDEST PUSH2 0x76 PUSH1 0x4 DUP1 CALLDATASIZE SUB DUP2 ADD SWAP1 PUSH2 0x71 SWAP2 SWAP1 PUSH2 0x910 JUMP JUMPDEST PUSH2 0x117 JUMP JUMPDEST STOP JUMPDEST PUSH2 0x92 PUSH1 0x4 DUP1 CALLDATASIZE SUB DUP2 ADD SWAP1 PUSH2 0x8D SWAP2 SWAP1 PUSH2 0x964 JUMP JUMPDEST PUSH2 0x4AB JUMP JUMPDEST PUSH1 0x40 MLOAD PUSH2 0xA2 SWAP5 SWAP4 SWAP3 SWAP2 SWAP1 PUSH2 0xBE5 JUMP JUMPDEST PUSH1 0x40 MLOAD DUP1 SWAP2 SUB SWAP1 RETURN JUMPDEST PUSH2 0xB3 PUSH2 0x5A0 JUMP JUMPDEST PUSH1 0x40 MLOAD PUSH2 0xC0 SWAP2 SWAP1 PUSH2 0xCAF JUMP JUMPDEST PUSH1 0x40 MLOAD DUP1 SWAP2 SUB SWAP1 RETURN JUMPDEST PUSH2 0xE3 PUSH1 0x4 DUP1 CALLDATASIZE SUB DUP2 ADD SWAP1 PUSH2 0xDE SWAP2 SWAP1 PUSH2 0x8E7 JUMP JUMPDEST PUSH2 0x5AD JUMP JUMPDEST PUSH1 0x40 MLOAD PUSH2 0xF0 SWAP2 SWAP1 PUSH2 0xCAF JUMP JUMPDEST PUSH1 0x40 MLOAD DUP1 SWAP2 SUB SWAP1 RETURN JUMPDEST PUSH2 0x101 PUSH2 0x5C5 JUMP JUMPDEST PUSH1 0x40 MLOAD PUSH2 0x10E SWAP2 SWAP1 PUSH2 0xBC3 JUMP JUMPDEST PUSH1 0x40 MLOAD DUP1 SWAP2 SUB SWAP1 RETURN JUMPDEST PUSH1 0x1 PUSH1 0x0 DUP1 DUP3 DUP3 SLOAD PUSH2 0x129 SWAP2 SWAP1 PUSH2 0xD91 JUMP JUMPDEST SWAP3 POP POP DUP2 SWAP1 SSTORE POP PUSH1 0x2 PUSH1 0x40 MLOAD DUP1 PUSH1 0x80 ADD PUSH1 0x40 MSTORE DUP1 DUP5 PUSH1 0x2 DUP2 GT ISZERO PUSH2 0x176 JUMPI PUSH32 0x4E487B7100000000000000000000000000000000000000000000000000000000 PUSH1 0x0 MSTORE PUSH1 0x21 PUSH1 0x4 MSTORE PUSH1 0x24 PUSH1 0x0 REVERT JUMPDEST DUP2 MSTORE PUSH1 0x20 ADD DUP4 DUP2 MSTORE PUSH1 0x20 ADD CALLER PUSH20 0xFFFFFFFFFFFFFFFFFFFFFFFFFFFFFFFFFFFFFFFF AND DUP2 MSTORE PUSH1 0x20 ADD TIMESTAMP DUP2 MSTORE POP SWAP1 DUP1 PUSH1 0x1 DUP2 SLOAD ADD DUP1 DUP3 SSTORE DUP1 SWAP2 POP POP PUSH1 0x1 SWAP1 SUB SWAP1 PUSH1 0x0 MSTORE PUSH1 0x20 PUSH1 0x0 KECCAK256 SWAP1 PUSH1 0x4 MUL ADD PUSH1 0x0 SWAP1 SWAP2 SWAP1 SWAP2 SWAP1 SWAP2 POP PUSH1 0x0 DUP3 ADD MLOAD DUP2 PUSH1 0x0 ADD PUSH1 0x0 PUSH2 0x100 EXP DUP2 SLOAD DUP2 PUSH1 0xFF MUL NOT AND SWAP1 DUP4 PUSH1 0x2 DUP2 GT ISZERO PUSH2 0x21B JUMPI PUSH32 0x4E487B7100000000000000000000000000000000000000000000000000000000 PUSH1 0x0 MSTORE PUSH1 0x21 PUSH1 0x4 MSTORE PUSH1 0x24 PUSH1 0x0 REVERT JUMPDEST MUL OR SWAP1 SSTORE POP PUSH1 0x20 DUP3 ADD MLOAD DUP2 PUSH1 0x1 ADD SWAP1 DUP1 MLOAD SWAP1 PUSH1 0x20 ADD SWAP1 PUSH2 0x23C SWAP3 SWAP2 SWAP1 PUSH2 0x79D JUMP JUMPDEST POP PUSH1 0x40 DUP3 ADD MLOAD DUP2 PUSH1 0x2 ADD PUSH1 0x0 PUSH2 0x100 EXP DUP2 SLOAD DUP2 PUSH20 0xFFFFFFFFFFFFFFFFFFFFFFFFFFFFFFFFFFFFFFFF MUL NOT AND SWAP1 DUP4 PUSH20 0xFFFFFFFFFFFFFFFFFFFFFFFFFFFFFFFFFFFFFFFF AND MUL OR SWAP1 SSTORE POP PUSH1 0x60 DUP3 ADD MLOAD DUP2 PUSH1 0x3 ADD SSTORE POP POP CALLER PUSH20 0xFFFFFFFFFFFFFFFFFFFFFFFFFFFFFFFFFFFFFFFF AND PUSH32 0x2D6873FDBCD96C625E1FAFA3267B0AAB6E37F9BE7D7A32BAF9F6875C5E298444 DUP4 DUP4 TIMESTAMP PUSH1 0x40 MLOAD PUSH2 0x2DA SWAP4 SWAP3 SWAP2 SWAP1 PUSH2 0xC31 JUMP JUMPDEST PUSH1 0x40 MLOAD DUP1 SWAP2 SUB SWAP1 LOG2 PUSH1 0x0 PUSH1 0x64 PUSH1 0x1 SLOAD TIMESTAMP DIFFICULTY PUSH2 0x2F5 SWAP2 SWAP1 PUSH2 0xD91 JUMP JUMPDEST PUSH2 0x2FF SWAP2 SWAP1 PUSH2 0xD91 JUMP JUMPDEST PUSH2 0x309 SWAP2 SWAP1 PUSH2 0xEED JUMP JUMPDEST SWAP1 POP DUP1 PUSH1 0x1 DUP2 SWAP1 SSTORE POP PUSH1 0x0 DUP1 PUSH1 0x2 DUP2 GT ISZERO PUSH2 0x34D JUMPI PUSH32 0x4E487B7100000000000000000000000000000000000000000000000000000000 PUSH1 0x0 MSTORE PUSH1 0x21 PUSH1 0x4 MSTORE PUSH1 0x24 PUSH1 0x0 REVERT JUMPDEST DUP5 PUSH1 0x2 DUP2 GT ISZERO PUSH2 0x386 JUMPI PUSH32 0x4E487B7100000000000000000000000000000000000000000000000000000000 PUSH1 0x0 MSTORE PUSH1 0x21 PUSH1 0x4 MSTORE PUSH1 0x24 PUSH1 0x0 REVERT JUMPDEST EQ ISZERO DUP1 PUSH2 0x394 JUMPI POP PUSH1 0x14 DUP4 MLOAD GT JUMPDEST SWAP1 POP DUP1 DUP1 ISZERO PUSH2 0x3A3 JUMPI POP PUSH1 0x28 DUP3 LT JUMPDEST ISZERO PUSH2 0x4A5 JUMPI PUSH1 0x0 PUSH6 0x5AF3107A4000 SWAP1 POP SELFBALANCE DUP2 GT ISZERO PUSH2 0x3F6 JUMPI PUSH1 0x40 MLOAD PUSH32 0x8C379A000000000000000000000000000000000000000000000000000000000 DUP2 MSTORE PUSH1 0x4 ADD PUSH2 0x3ED SWAP1 PUSH2 0xC6F JUMP JUMPDEST PUSH1 0x40 MLOAD DUP1 SWAP2 SUB SWAP1 REVERT JUMPDEST PUSH1 0x0 CALLER PUSH20 0xFFFFFFFFFFFFFFFFFFFFFFFFFFFFFFFFFFFFFFFF AND DUP3 PUSH1 0x40 MLOAD PUSH2 0x41C SWAP1 PUSH2 0xBAE JUMP JUMPDEST PUSH1 0x0 PUSH1 0x40 MLOAD DUP1 DUP4 SUB DUP2 DUP6 DUP8 GAS CALL SWAP3 POP POP POP RETURNDATASIZE DUP1 PUSH1 0x0 DUP2 EQ PUSH2 0x459 JUMPI PUSH1 0x40 MLOAD SWAP2 POP PUSH1 0x1F NOT PUSH1 0x3F RETURNDATASIZE ADD AND DUP3 ADD PUSH1 0x40 MSTORE RETURNDATASIZE DUP3 MSTORE RETURNDATASIZE PUSH1 0x0 PUSH1 0x20 DUP5 ADD RETURNDATACOPY PUSH2 0x45E JUMP JUMPDEST PUSH1 0x60 SWAP2 POP JUMPDEST POP POP SWAP1 POP DUP1 PUSH2 0x4A2 JUMPI PUSH1 0x40 MLOAD PUSH32 0x8C379A000000000000000000000000000000000000000000000000000000000 DUP2 MSTORE PUSH1 0x4 ADD PUSH2 0x499 SWAP1 PUSH2 0xC8F JUMP JUMPDEST PUSH1 0x40 MLOAD DUP1 SWAP2 SUB SWAP1 REVERT JUMPDEST POP POP JUMPDEST POP POP POP POP JUMP JUMPDEST PUSH1 0x2 DUP2 DUP2 SLOAD DUP2 LT PUSH2 0x4BB JUMPI PUSH1 0x0 DUP1 REVERT JUMPDEST SWAP1 PUSH1 0x0 MSTORE PUSH1 0x20 PUSH1 0x0 KECCAK256 SWAP1 PUSH1 0x4 MUL ADD PUSH1 0x0 SWAP2 POP SWAP1 POP DUP1 PUSH1 0x0 ADD PUSH1 0x0 SWAP1 SLOAD SWAP1 PUSH2 0x100 EXP SWAP1 DIV PUSH1 0xFF AND SWAP1 DUP1 PUSH1 0x1 ADD DUP1 SLOAD PUSH2 0x4F1 SWAP1 PUSH2 0xE8A JUMP JUMPDEST DUP1 PUSH1 0x1F ADD PUSH1 0x20 DUP1 SWAP2 DIV MUL PUSH1 0x20 ADD PUSH1 0x40 MLOAD SWAP1 DUP2 ADD PUSH1 0x40 MSTORE DUP1 SWAP3 SWAP2 SWAP1 DUP2 DUP2 MSTORE PUSH1 0x20 ADD DUP3 DUP1 SLOAD PUSH2 0x51D SWAP1 PUSH2 0xE8A JUMP JUMPDEST DUP1 ISZERO PUSH2 0x56A JUMPI DUP1 PUSH1 0x1F LT PUSH2 0x53F JUMPI PUSH2 0x100 DUP1 DUP4 SLOAD DIV MUL DUP4 MSTORE SWAP2 PUSH1 0x20 ADD SWAP2 PUSH2 0x56A JUMP JUMPDEST DUP3 ADD SWAP2 SWAP1 PUSH1 0x0 MSTORE PUSH1 0x20 PUSH1 0x0 KECCAK256 SWAP1 JUMPDEST DUP2 SLOAD DUP2 MSTORE SWAP1 PUSH1 0x1 ADD SWAP1 PUSH1 0x20 ADD DUP1 DUP4 GT PUSH2 0x54D JUMPI DUP3 SWAP1 SUB PUSH1 0x1F AND DUP3 ADD SWAP2 JUMPDEST POP POP POP POP POP SWAP1 DUP1 PUSH1 0x2 ADD PUSH1 0x0 SWAP1 SLOAD SWAP1 PUSH2 0x100 EXP SWAP1 DIV PUSH20 0xFFFFFFFFFFFFFFFFFFFFFFFFFFFFFFFFFFFFFFFF AND SWAP1 DUP1 PUSH1 0x3 ADD SLOAD SWAP1 POP DUP5 JUMP JUMPDEST PUSH1 0x0 PUSH1 0x2 DUP1 SLOAD SWAP1 POP SWAP1 POP SWAP1 JUMP JUMPDEST PUSH1 0x3 PUSH1 0x20 MSTORE DUP1 PUSH1 0x0 MSTORE PUSH1 0x40 PUSH1 0x0 KECCAK256 PUSH1 0x0 SWAP2 POP SWAP1 POP SLOAD DUP2 JUMP JUMPDEST PUSH1 0x60 PUSH1 0x2 DUP1 SLOAD DUP1 PUSH1 0x20 MUL PUSH1 0x20 ADD PUSH1 0x40 MLOAD SWAP1 DUP2 ADD PUSH1 0x40 MSTORE DUP1 SWAP3 SWAP2 SWAP1 DUP2 DUP2 MSTORE PUSH1 0x20 ADD PUSH1 0x0 SWAP1 JUMPDEST DUP3 DUP3 LT ISZERO PUSH2 0x794 JUMPI DUP4 DUP3 SWAP1 PUSH1 0x0 MSTORE PUSH1 0x20 PUSH1 0x0 KECCAK256 SWAP1 PUSH1 0x4 MUL ADD PUSH1 0x40 MLOAD DUP1 PUSH1 0x80 ADD PUSH1 0x40 MSTORE SWAP1 DUP2 PUSH1 0x0 DUP3 ADD PUSH1 0x0 SWAP1 SLOAD SWAP1 PUSH2 0x100 EXP SWAP1 DIV PUSH1 0xFF AND PUSH1 0x2 DUP2 GT ISZERO PUSH2 0x657 JUMPI PUSH32 0x4E487B7100000000000000000000000000000000000000000000000000000000 PUSH1 0x0 MSTORE PUSH1 0x21 PUSH1 0x4 MSTORE PUSH1 0x24 PUSH1 0x0 REVERT JUMPDEST PUSH1 0x2 DUP2 GT ISZERO PUSH2 0x68F JUMPI PUSH32 0x4E487B7100000000000000000000000000000000000000000000000000000000 PUSH1 0x0 MSTORE PUSH1 0x21 PUSH1 0x4 MSTORE PUSH1 0x24 PUSH1 0x0 REVERT JUMPDEST DUP2 MSTORE PUSH1 0x20 ADD PUSH1 0x1 DUP3 ADD DUP1 SLOAD PUSH2 0x6A3 SWAP1 PUSH2 0xE8A JUMP JUMPDEST DUP1 PUSH1 0x1F ADD PUSH1 0x20 DUP1 SWAP2 DIV MUL PUSH1 0x20 ADD PUSH1 0x40 MLOAD SWAP1 DUP2 ADD PUSH1 0x40 MSTORE DUP1 SWAP3 SWAP2 SWAP1 DUP2 DUP2 MSTORE PUSH1 0x20 ADD DUP3 DUP1 SLOAD PUSH2 0x6CF SWAP1 PUSH2 0xE8A JUMP JUMPDEST DUP1 ISZERO PUSH2 0x71C JUMPI DUP1 PUSH1 0x1F LT PUSH2 0x6F1 JUMPI PUSH2 0x100 DUP1 DUP4 SLOAD DIV MUL DUP4 MSTORE SWAP2 PUSH1 0x20 ADD SWAP2 PUSH2 0x71C JUMP JUMPDEST DUP3 ADD SWAP2 SWAP1 PUSH1 0x0 MSTORE PUSH1 0x20 PUSH1 0x0 KECCAK256 SWAP1 JUMPDEST DUP2 SLOAD DUP2 MSTORE SWAP1 PUSH1 0x1 ADD SWAP1 PUSH1 0x20 ADD DUP1 DUP4 GT PUSH2 0x6FF JUMPI DUP3 SWAP1 SUB PUSH1 0x1F AND DUP3 ADD SWAP2 JUMPDEST POP POP POP POP POP DUP2 MSTORE PUSH1 0x20 ADD PUSH1 0x2 DUP3 ADD PUSH1 0x0 SWAP1 SLOAD SWAP1 PUSH2 0x100 EXP SWAP1 DIV PUSH20 0xFFFFFFFFFFFFFFFFFFFFFFFFFFFFFFFFFFFFFFFF AND PUSH20 0xFFFFFFFFFFFFFFFFFFFFFFFFFFFFFFFFFFFFFFFF AND PUSH20 0xFFFFFFFFFFFFFFFFFFFFFFFFFFFFFFFFFFFFFFFF AND DUP2 MSTORE PUSH1 0x20 ADD PUSH1 0x3 DUP3 ADD SLOAD DUP2 MSTORE POP POP DUP2 MSTORE PUSH1 0x20 ADD SWAP1 PUSH1 0x1 ADD SWAP1 PUSH2 0x5E9 JUMP JUMPDEST POP POP POP POP SWAP1 POP SWAP1 JUMP JUMPDEST DUP3 DUP1 SLOAD PUSH2 0x7A9 SWAP1 PUSH2 0xE8A JUMP JUMPDEST SWAP1 PUSH1 0x0 MSTORE PUSH1 0x20 PUSH1 0x0 KECCAK256 SWAP1 PUSH1 0x1F ADD PUSH1 0x20 SWAP1 DIV DUP2 ADD SWAP3 DUP3 PUSH2 0x7CB JUMPI PUSH1 0x0 DUP6 SSTORE PUSH2 0x812 JUMP JUMPDEST DUP3 PUSH1 0x1F LT PUSH2 0x7E4 JUMPI DUP1 MLOAD PUSH1 0xFF NOT AND DUP4 DUP1 ADD OR DUP6 SSTORE PUSH2 0x812 JUMP JUMPDEST DUP3 DUP1 ADD PUSH1 0x1 ADD DUP6 SSTORE DUP3 ISZERO PUSH2 0x812 JUMPI SWAP2 DUP3 ADD JUMPDEST DUP3 DUP2 GT ISZERO PUSH2 0x811 JUMPI DUP3 MLOAD DUP3 SSTORE SWAP2 PUSH1 0x20 ADD SWAP2 SWAP1 PUSH1 0x1 ADD SWAP1 PUSH2 0x7F6 JUMP JUMPDEST JUMPDEST POP SWAP1 POP PUSH2 0x81F SWAP2 SWAP1 PUSH2 0x823 JUMP JUMPDEST POP SWAP1 JUMP JUMPDEST JUMPDEST DUP1 DUP3 GT ISZERO PUSH2 0x83C JUMPI PUSH1 0x0 DUP2 PUSH1 0x0 SWAP1 SSTORE POP PUSH1 0x1 ADD PUSH2 0x824 JUMP JUMPDEST POP SWAP1 JUMP JUMPDEST PUSH1 0x0 PUSH2 0x853 PUSH2 0x84E DUP5 PUSH2 0xCEF JUMP JUMPDEST PUSH2 0xCCA JUMP JUMPDEST SWAP1 POP DUP3 DUP2 MSTORE PUSH1 0x20 DUP2 ADD DUP5 DUP5 DUP5 ADD GT ISZERO PUSH2 0x86B JUMPI PUSH1 0x0 DUP1 REVERT JUMPDEST PUSH2 0x876 DUP5 DUP3 DUP6 PUSH2 0xE48 JUMP JUMPDEST POP SWAP4 SWAP3 POP POP POP JUMP JUMPDEST PUSH1 0x0 DUP2 CALLDATALOAD SWAP1 POP PUSH2 0x88D DUP2 PUSH2 0x10CF JUMP JUMPDEST SWAP3 SWAP2 POP POP JUMP JUMPDEST PUSH1 0x0 DUP2 CALLDATALOAD SWAP1 POP PUSH2 0x8A2 DUP2 PUSH2 0x10E6 JUMP JUMPDEST SWAP3 SWAP2 POP POP JUMP JUMPDEST PUSH1 0x0 DUP3 PUSH1 0x1F DUP4 ADD SLT PUSH2 0x8B9 JUMPI PUSH1 0x0 DUP1 REVERT JUMPDEST DUP2 CALLDATALOAD PUSH2 0x8C9 DUP5 DUP3 PUSH1 0x20 DUP7 ADD PUSH2 0x840 JUMP JUMPDEST SWAP2 POP POP SWAP3 SWAP2 POP POP JUMP JUMPDEST PUSH1 0x0 DUP2 CALLDATALOAD SWAP1 POP PUSH2 0x8E1 DUP2 PUSH2 0x10F6 JUMP JUMPDEST SWAP3 SWAP2 POP POP JUMP JUMPDEST PUSH1 0x0 PUSH1 0x20 DUP3 DUP5 SUB SLT ISZERO PUSH2 0x8F9 JUMPI PUSH1 0x0 DUP1 REVERT JUMPDEST PUSH1 0x0 PUSH2 0x907 DUP5 DUP3 DUP6 ADD PUSH2 0x87E JUMP JUMPDEST SWAP2 POP POP SWAP3 SWAP2 POP POP JUMP JUMPDEST PUSH1 0x0 DUP1 PUSH1 0x40 DUP4 DUP6 SUB SLT ISZERO PUSH2 0x923 JUMPI PUSH1 0x0 DUP1 REVERT JUMPDEST PUSH1 0x0 PUSH2 0x931 DUP6 DUP3 DUP7 ADD PUSH2 0x893 JUMP JUMPDEST SWAP3 POP POP PUSH1 0x20 DUP4 ADD CALLDATALOAD PUSH8 0xFFFFFFFFFFFFFFFF DUP2 GT ISZERO PUSH2 0x94E JUMPI PUSH1 0x0 DUP1 REVERT JUMPDEST PUSH2 0x95A DUP6 DUP3 DUP7 ADD PUSH2 0x8A8 JUMP JUMPDEST SWAP2 POP POP SWAP3 POP SWAP3 SWAP1 POP JUMP JUMPDEST PUSH1 0x0 PUSH1 0x20 DUP3 DUP5 SUB SLT ISZERO PUSH2 0x976 JUMPI PUSH1 0x0 DUP1 REVERT JUMPDEST PUSH1 0x0 PUSH2 0x984 DUP5 DUP3 DUP6 ADD PUSH2 0x8D2 JUMP JUMPDEST SWAP2 POP POP SWAP3 SWAP2 POP POP JUMP JUMPDEST PUSH1 0x0 PUSH2 0x999 DUP4 DUP4 PUSH2 0xB2D JUMP JUMPDEST SWAP1 POP SWAP3 SWAP2 POP POP JUMP JUMPDEST PUSH2 0x9AA DUP2 PUSH2 0xDE7 JUMP JUMPDEST DUP3 MSTORE POP POP JUMP JUMPDEST PUSH2 0x9B9 DUP2 PUSH2 0xDE7 JUMP JUMPDEST DUP3 MSTORE POP POP JUMP JUMPDEST PUSH1 0x0 PUSH2 0x9CA DUP3 PUSH2 0xD30 JUMP JUMPDEST PUSH2 0x9D4 DUP2 DUP6 PUSH2 0xD53 JUMP JUMPDEST SWAP4 POP DUP4 PUSH1 0x20 DUP3 MUL DUP6 ADD PUSH2 0x9E6 DUP6 PUSH2 0xD20 JUMP JUMPDEST DUP1 PUSH1 0x0 JUMPDEST DUP6 DUP2 LT ISZERO PUSH2 0xA22 JUMPI DUP5 DUP5 SUB DUP10 MSTORE DUP2 MLOAD PUSH2 0xA03 DUP6 DUP3 PUSH2 0x98D JUMP JUMPDEST SWAP5 POP PUSH2 0xA0E DUP4 PUSH2 0xD46 JUMP JUMPDEST SWAP3 POP PUSH1 0x20 DUP11 ADD SWAP10 POP POP PUSH1 0x1 DUP2 ADD SWAP1 POP PUSH2 0x9EA JUMP JUMPDEST POP DUP3 SWAP8 POP DUP8 SWAP6 POP POP POP POP POP POP SWAP3 SWAP2 POP POP JUMP JUMPDEST PUSH2 0xA3D DUP2 PUSH2 0xE36 JUMP JUMPDEST DUP3 MSTORE POP POP JUMP JUMPDEST PUSH2 0xA4C DUP2 PUSH2 0xE36 JUMP JUMPDEST DUP3 MSTORE POP POP JUMP JUMPDEST PUSH1 0x0 PUSH2 0xA5D DUP3 PUSH2 0xD3B JUMP JUMPDEST PUSH2 0xA67 DUP2 DUP6 PUSH2 0xD6F JUMP JUMPDEST SWAP4 POP PUSH2 0xA77 DUP2 DUP6 PUSH1 0x20 DUP7 ADD PUSH2 0xE57 JUMP JUMPDEST PUSH2 0xA80 DUP2 PUSH2 0x1009 JUMP JUMPDEST DUP5 ADD SWAP2 POP POP SWAP3 SWAP2 POP POP JUMP JUMPDEST PUSH1 0x0 PUSH2 0xA96 DUP3 PUSH2 0xD3B JUMP JUMPDEST PUSH2 0xAA0 DUP2 DUP6 PUSH2 0xD80 JUMP JUMPDEST SWAP4 POP PUSH2 0xAB0 DUP2 DUP6 PUSH1 0x20 DUP7 ADD PUSH2 0xE57 JUMP JUMPDEST PUSH2 0xAB9 DUP2 PUSH2 0x1009 JUMP JUMPDEST DUP5 ADD SWAP2 POP POP SWAP3 SWAP2 POP POP JUMP JUMPDEST PUSH1 0x0 PUSH2 0xAD1 PUSH1 0x2F DUP4 PUSH2 0xD80 JUMP JUMPDEST SWAP2 POP PUSH2 0xADC DUP3 PUSH2 0x101A JUMP JUMPDEST PUSH1 0x40 DUP3 ADD SWAP1 POP SWAP2 SWAP1 POP JUMP JUMPDEST PUSH1 0x0 PUSH2 0xAF4 PUSH1 0x27 DUP4 PUSH2 0xD80 JUMP JUMPDEST SWAP2 POP PUSH2 0xAFF DUP3 PUSH2 0x1069 JUMP JUMPDEST PUSH1 0x40 DUP3 ADD SWAP1 POP SWAP2 SWAP1 POP JUMP JUMPDEST PUSH1 0x0 PUSH2 0xB17 PUSH1 0x0 DUP4 PUSH2 0xD64 JUMP JUMPDEST SWAP2 POP PUSH2 0xB22 DUP3 PUSH2 0x10B8 JUMP JUMPDEST PUSH1 0x0 DUP3 ADD SWAP1 POP SWAP2 SWAP1 POP JUMP JUMPDEST PUSH1 0x0 PUSH1 0x80 DUP4 ADD PUSH1 0x0 DUP4 ADD MLOAD PUSH2 0xB45 PUSH1 0x0 DUP7 ADD DUP3 PUSH2 0xA34 JUMP JUMPDEST POP PUSH1 0x20 DUP4 ADD MLOAD DUP5 DUP3 SUB PUSH1 0x20 DUP7 ADD MSTORE PUSH2 0xB5D DUP3 DUP3 PUSH2 0xA52 JUMP JUMPDEST SWAP2 POP POP PUSH1 0x40 DUP4 ADD MLOAD PUSH2 0xB72 PUSH1 0x40 DUP7 ADD DUP3 PUSH2 0x9A1 JUMP JUMPDEST POP PUSH1 0x60 DUP4 ADD MLOAD PUSH2 0xB85 PUSH1 0x60 DUP7 ADD DUP3 PUSH2 0xB90 JUMP JUMPDEST POP DUP1 SWAP2 POP POP SWAP3 SWAP2 POP POP JUMP JUMPDEST PUSH2 0xB99 DUP2 PUSH2 0xE2C JUMP JUMPDEST DUP3 MSTORE POP POP JUMP JUMPDEST PUSH2 0xBA8 DUP2 PUSH2 0xE2C JUMP JUMPDEST DUP3 MSTORE POP POP JUMP JUMPDEST PUSH1 0x0 PUSH2 0xBB9 DUP3 PUSH2 0xB0A JUMP JUMPDEST SWAP2 POP DUP2 SWAP1 POP SWAP2 SWAP1 POP JUMP JUMPDEST PUSH1 0x0 PUSH1 0x20 DUP3 ADD SWAP1 POP DUP2 DUP2 SUB PUSH1 0x0 DUP4 ADD MSTORE PUSH2 0xBDD DUP2 DUP5 PUSH2 0x9BF JUMP JUMPDEST SWAP1 POP SWAP3 SWAP2 POP POP JUMP JUMPDEST PUSH1 0x0 PUSH1 0x80 DUP3 ADD SWAP1 POP PUSH2 0xBFA PUSH1 0x0 DUP4 ADD DUP8 PUSH2 0xA43 JUMP JUMPDEST DUP2 DUP2 SUB PUSH1 0x20 DUP4 ADD MSTORE PUSH2 0xC0C DUP2 DUP7 PUSH2 0xA8B JUMP JUMPDEST SWAP1 POP PUSH2 0xC1B PUSH1 0x40 DUP4 ADD DUP6 PUSH2 0x9B0 JUMP JUMPDEST PUSH2 0xC28 PUSH1 0x60 DUP4 ADD DUP5 PUSH2 0xB9F JUMP JUMPDEST SWAP6 SWAP5 POP POP POP POP POP JUMP JUMPDEST PUSH1 0x0 PUSH1 0x60 DUP3 ADD SWAP1 POP PUSH2 0xC46 PUSH1 0x0 DUP4 ADD DUP7 PUSH2 0xA43 JUMP JUMPDEST DUP2 DUP2 SUB PUSH1 0x20 DUP4 ADD MSTORE PUSH2 0xC58 DUP2 DUP6 PUSH2 0xA8B JUMP JUMPDEST SWAP1 POP PUSH2 0xC67 PUSH1 0x40 DUP4 ADD DUP5 PUSH2 0xB9F JUMP JUMPDEST SWAP5 SWAP4 POP POP POP POP JUMP JUMPDEST PUSH1 0x0 PUSH1 0x20 DUP3 ADD SWAP1 POP DUP2 DUP2 SUB PUSH1 0x0 DUP4 ADD MSTORE PUSH2 0xC88 DUP2 PUSH2 0xAC4 JUMP JUMPDEST SWAP1 POP SWAP2 SWAP1 POP JUMP JUMPDEST PUSH1 0x0 PUSH1 0x20 DUP3 ADD SWAP1 POP DUP2 DUP2 SUB PUSH1 0x0 DUP4 ADD MSTORE PUSH2 0xCA8 DUP2 PUSH2 0xAE7 JUMP JUMPDEST SWAP1 POP SWAP2 SWAP1 POP JUMP JUMPDEST PUSH1 0x0 PUSH1 0x20 DUP3 ADD SWAP1 POP PUSH2 0xCC4 PUSH1 0x0 DUP4 ADD DUP5 PUSH2 0xB9F JUMP JUMPDEST SWAP3 SWAP2 POP POP JUMP JUMPDEST PUSH1 0x0 PUSH2 0xCD4 PUSH2 0xCE5 JUMP JUMPDEST SWAP1 POP PUSH2 0xCE0 DUP3 DUP3 PUSH2 0xEBC JUMP JUMPDEST SWAP2 SWAP1 POP JUMP JUMPDEST PUSH1 0x0 PUSH1 0x40 MLOAD SWAP1 POP SWAP1 JUMP JUMPDEST PUSH1 0x0 PUSH8 0xFFFFFFFFFFFFFFFF DUP3 GT ISZERO PUSH2 0xD0A JUMPI PUSH2 0xD09 PUSH2 0xFDA JUMP JUMPDEST JUMPDEST PUSH2 0xD13 DUP3 PUSH2 0x1009 JUMP JUMPDEST SWAP1 POP PUSH1 0x20 DUP2 ADD SWAP1 POP SWAP2 SWAP1 POP JUMP JUMPDEST PUSH1 0x0 DUP2 SWAP1 POP PUSH1 0x20 DUP3 ADD SWAP1 POP SWAP2 SWAP1 POP JUMP JUMPDEST PUSH1 0x0 DUP2 MLOAD SWAP1 POP SWAP2 SWAP1 POP JUMP JUMPDEST PUSH1 0x0 DUP2 MLOAD SWAP1 POP SWAP2 SWAP1 POP JUMP JUMPDEST PUSH1 0x0 PUSH1 0x20 DUP3 ADD SWAP1 POP SWAP2 SWAP1 POP JUMP JUMPDEST PUSH1 0x0 DUP3 DUP3 MSTORE PUSH1 0x20 DUP3 ADD SWAP1 POP SWAP3 SWAP2 POP POP JUMP JUMPDEST PUSH1 0x0 DUP2 SWAP1 POP SWAP3 SWAP2 POP POP JUMP JUMPDEST PUSH1 0x0 DUP3 DUP3 MSTORE PUSH1 0x20 DUP3 ADD SWAP1 POP SWAP3 SWAP2 POP POP JUMP JUMPDEST PUSH1 0x0 DUP3 DUP3 MSTORE PUSH1 0x20 DUP3 ADD SWAP1 POP SWAP3 SWAP2 POP POP JUMP JUMPDEST PUSH1 0x0 PUSH2 0xD9C DUP3 PUSH2 0xE2C JUMP JUMPDEST SWAP2 POP PUSH2 0xDA7 DUP4 PUSH2 0xE2C JUMP JUMPDEST SWAP3 POP DUP3 PUSH32 0xFFFFFFFFFFFFFFFFFFFFFFFFFFFFFFFFFFFFFFFFFFFFFFFFFFFFFFFFFFFFFFFF SUB DUP3 GT ISZERO PUSH2 0xDDC JUMPI PUSH2 0xDDB PUSH2 0xF1E JUMP JUMPDEST JUMPDEST DUP3 DUP3 ADD SWAP1 POP SWAP3 SWAP2 POP POP JUMP JUMPDEST PUSH1 0x0 PUSH2 0xDF2 DUP3 PUSH2 0xE0C JUMP JUMPDEST SWAP1 POP SWAP2 SWAP1 POP JUMP JUMPDEST PUSH1 0x0 DUP2 SWAP1 POP PUSH2 0xE07 DUP3 PUSH2 0x10BB JUMP JUMPDEST SWAP2 SWAP1 POP JUMP JUMPDEST PUSH1 0x0 PUSH20 0xFFFFFFFFFFFFFFFFFFFFFFFFFFFFFFFFFFFFFFFF DUP3 AND SWAP1 POP SWAP2 SWAP1 POP JUMP JUMPDEST PUSH1 0x0 DUP2 SWAP1 POP SWAP2 SWAP1 POP JUMP JUMPDEST PUSH1 0x0 PUSH2 0xE41 DUP3 PUSH2 0xDF9 JUMP JUMPDEST SWAP1 POP SWAP2 SWAP1 POP JUMP JUMPDEST DUP3 DUP2 DUP4 CALLDATACOPY PUSH1 0x0 DUP4 DUP4 ADD MSTORE POP POP POP JUMP JUMPDEST PUSH1 0x0 JUMPDEST DUP4 DUP2 LT ISZERO PUSH2 0xE75 JUMPI DUP1 DUP3 ADD MLOAD DUP2 DUP5 ADD MSTORE PUSH1 0x20 DUP2 ADD SWAP1 POP PUSH2 0xE5A JUMP JUMPDEST DUP4 DUP2 GT ISZERO PUSH2 0xE84 JUMPI PUSH1 0x0 DUP5 DUP5 ADD MSTORE JUMPDEST POP POP POP POP JUMP JUMPDEST PUSH1 0x0 PUSH1 0x2 DUP3 DIV SWAP1 POP PUSH1 0x1 DUP3 AND DUP1 PUSH2 0xEA2 JUMPI PUSH1 0x7F DUP3 AND SWAP2 POP JUMPDEST PUSH1 0x20 DUP3 LT DUP2 EQ ISZERO PUSH2 0xEB6 JUMPI PUSH2 0xEB5 PUSH2 0xFAB JUMP JUMPDEST JUMPDEST POP SWAP2 SWAP1 POP JUMP JUMPDEST PUSH2 0xEC5 DUP3 PUSH2 0x1009 JUMP JUMPDEST DUP2 ADD DUP2 DUP2 LT PUSH8 0xFFFFFFFFFFFFFFFF DUP3 GT OR ISZERO PUSH2 0xEE4 JUMPI PUSH2 0xEE3 PUSH2 0xFDA JUMP JUMPDEST JUMPDEST DUP1 PUSH1 0x40 MSTORE POP POP POP JUMP JUMPDEST PUSH1 0x0 PUSH2 0xEF8 DUP3 PUSH2 0xE2C JUMP JUMPDEST SWAP2 POP PUSH2 0xF03 DUP4 PUSH2 0xE2C JUMP JUMPDEST SWAP3 POP DUP3 PUSH2 0xF13 JUMPI PUSH2 0xF12 PUSH2 0xF4D JUMP JUMPDEST JUMPDEST DUP3 DUP3 MOD SWAP1 POP SWAP3 SWAP2 POP POP JUMP JUMPDEST PUSH32 0x4E487B7100000000000000000000000000000000000000000000000000000000 PUSH1 0x0 MSTORE PUSH1 0x11 PUSH1 0x4 MSTORE PUSH1 0x24 PUSH1 0x0 REVERT JUMPDEST PUSH32 0x4E487B7100000000000000000000000000000000000000000000000000000000 PUSH1 0x0 MSTORE PUSH1 0x12 PUSH1 0x4 MSTORE PUSH1 0x24 PUSH1 0x0 REVERT JUMPDEST PUSH32 0x4E487B7100000000000000000000000000000000000000000000000000000000 PUSH1 0x0 MSTORE PUSH1 0x21 PUSH1 0x4 MSTORE PUSH1 0x24 PUSH1 0x0 REVERT JUMPDEST PUSH32 0x4E487B7100000000000000000000000000000000000000000000000000000000 PUSH1 0x0 MSTORE PUSH1 0x22 PUSH1 0x4 MSTORE PUSH1 0x24 PUSH1 0x0 REVERT JUMPDEST PUSH32 0x4E487B7100000000000000000000000000000000000000000000000000000000 PUSH1 0x0 MSTORE PUSH1 0x41 PUSH1 0x4 MSTORE PUSH1 0x24 PUSH1 0x0 REVERT JUMPDEST PUSH1 0x0 PUSH1 0x1F NOT PUSH1 0x1F DUP4 ADD AND SWAP1 POP SWAP2 SWAP1 POP JUMP JUMPDEST PUSH32 0x436F6E74726163742066756E64732061726520696E73756666696369656E7420 PUSH1 0x0 DUP3 ADD MSTORE PUSH32 0x746F206772616E74207072697A652E0000000000000000000000000000000000 PUSH1 0x20 DUP3 ADD MSTORE POP JUMP JUMPDEST PUSH32 0x4661696C656420746F207769746864726177206D6F6E65792066726F6D20636F PUSH1 0x0 DUP3 ADD MSTORE PUSH32 0x6E74726163742E00000000000000000000000000000000000000000000000000 PUSH1 0x20 DUP3 ADD MSTORE POP JUMP JUMPDEST POP JUMP JUMPDEST PUSH1 0x3 DUP2 LT PUSH2 0x10CC JUMPI PUSH2 0x10CB PUSH2 0xF7C JUMP JUMPDEST JUMPDEST POP JUMP JUMPDEST PUSH2 0x10D8 DUP2 PUSH2 0xDE7 JUMP JUMPDEST DUP2 EQ PUSH2 0x10E3 JUMPI PUSH1 0x0 DUP1 REVERT JUMPDEST POP JUMP JUMPDEST PUSH1 0x3 DUP2 LT PUSH2 0x10F3 JUMPI PUSH1 0x0 DUP1 REVERT JUMPDEST POP JUMP JUMPDEST PUSH2 0x10FF DUP2 PUSH2 0xE2C JUMP JUMPDEST DUP2 EQ PUSH2 0x110A JUMPI PUSH1 0x0 DUP1 REVERT JUMPDEST POP JUMP INVALID LOG2 PUSH5 0x6970667358 0x22 SLT KECCAK256 MUL SDIV 0xAB PUSH10 0x9A74F84A2F503E962710 0xDD SSTORE 0x2E INVALID PUSH1 0x67 0xAA SWAP7 ADDRESS 0x2B PUSH20 0xA2F0096B39ED5764736F6C634300080400330000 "
        },
        "methodIdentifiers": {
          "getAllWaves()": "bd43a908",
          "getTotalWaves()": "9a2cdc08",
          "lastWavedAt(address)": "a42a4663",
          "wave(uint8,string)": "48c29f14",
          "waveList(uint256)": "8b9c3ecd"
        }
      }
    }
  }
}